Archive member included because of file (symbol)

/opt/codesourcery/arm-2012.09/bin/../lib/gcc/arm-none-eabi/4.7.2/../../../../arm-none-eabi/lib/thumb2/libstdc++.a(del_op.o)
                              ./Drivers/HW.o (operator delete(void*))
/opt/codesourcery/arm-2012.09/bin/../lib/gcc/arm-none-eabi/4.7.2/../../../../arm-none-eabi/lib/thumb2/libc.a(lib_a-atexit.o)
                              ./Drivers/HW.o (atexit)
/opt/codesourcery/arm-2012.09/bin/../lib/gcc/arm-none-eabi/4.7.2/../../../../arm-none-eabi/lib/thumb2/libc.a(lib_a-atoi.o)
                              ./Applications/CMainHandler.o (atoi)
/opt/codesourcery/arm-2012.09/bin/../lib/gcc/arm-none-eabi/4.7.2/../../../../arm-none-eabi/lib/thumb2/libc.a(lib_a-errno.o)
                              ./system/syscalls.o (__errno)
/opt/codesourcery/arm-2012.09/bin/../lib/gcc/arm-none-eabi/4.7.2/../../../../arm-none-eabi/lib/thumb2/libc.a(lib_a-impure.o)
                              /opt/codesourcery/arm-2012.09/bin/../lib/gcc/arm-none-eabi/4.7.2/../../../../arm-none-eabi/lib/thumb2/libc.a(lib_a-errno.o) (_impure_ptr)
/opt/codesourcery/arm-2012.09/bin/../lib/gcc/arm-none-eabi/4.7.2/../../../../arm-none-eabi/lib/thumb2/libc.a(lib_a-malloc.o)
                              /opt/codesourcery/arm-2012.09/bin/../lib/gcc/arm-none-eabi/4.7.2/../../../../arm-none-eabi/lib/thumb2/libstdc++.a(del_op.o) (free)
/opt/codesourcery/arm-2012.09/bin/../lib/gcc/arm-none-eabi/4.7.2/../../../../arm-none-eabi/lib/thumb2/libc.a(lib_a-mallocr.o)
                              /opt/codesourcery/arm-2012.09/bin/../lib/gcc/arm-none-eabi/4.7.2/../../../../arm-none-eabi/lib/thumb2/libc.a(lib_a-malloc.o) (_malloc_r)
/opt/codesourcery/arm-2012.09/bin/../lib/gcc/arm-none-eabi/4.7.2/../../../../arm-none-eabi/lib/thumb2/libc.a(lib_a-memcmp.o)
                              ./Applications/CSerialHandler.o (memcmp)
/opt/codesourcery/arm-2012.09/bin/../lib/gcc/arm-none-eabi/4.7.2/../../../../arm-none-eabi/lib/thumb2/libc.a(lib_a-memcpy.o)
                              ./Third_Party/fat_fs/src/diskio.o (memcpy)
/opt/codesourcery/arm-2012.09/bin/../lib/gcc/arm-none-eabi/4.7.2/../../../../arm-none-eabi/lib/thumb2/libc.a(lib_a-memset.o)
                              ./system/syscalls.o (memset)
/opt/codesourcery/arm-2012.09/bin/../lib/gcc/arm-none-eabi/4.7.2/../../../../arm-none-eabi/lib/thumb2/libc.a(lib_a-mlock.o)
                              /opt/codesourcery/arm-2012.09/bin/../lib/gcc/arm-none-eabi/4.7.2/../../../../arm-none-eabi/lib/thumb2/libc.a(lib_a-mallocr.o) (__malloc_lock)
/opt/codesourcery/arm-2012.09/bin/../lib/gcc/arm-none-eabi/4.7.2/../../../../arm-none-eabi/lib/thumb2/libc.a(lib_a-strtol.o)
                              /opt/codesourcery/arm-2012.09/bin/../lib/gcc/arm-none-eabi/4.7.2/../../../../arm-none-eabi/lib/thumb2/libc.a(lib_a-atoi.o) (_strtol_r)
/opt/codesourcery/arm-2012.09/bin/../lib/gcc/arm-none-eabi/4.7.2/../../../../arm-none-eabi/lib/thumb2/libc.a(lib_a-__atexit.o)
                              /opt/codesourcery/arm-2012.09/bin/../lib/gcc/arm-none-eabi/4.7.2/../../../../arm-none-eabi/lib/thumb2/libc.a(lib_a-atexit.o) (__register_exitproc)
/opt/codesourcery/arm-2012.09/bin/../lib/gcc/arm-none-eabi/4.7.2/../../../../arm-none-eabi/lib/thumb2/libc.a(lib_a-ctype_.o)
                              /opt/codesourcery/arm-2012.09/bin/../lib/gcc/arm-none-eabi/4.7.2/../../../../arm-none-eabi/lib/thumb2/libc.a(lib_a-strtol.o) (__ctype_ptr__)
/opt/codesourcery/arm-2012.09/bin/../lib/gcc/arm-none-eabi/4.7.2/../../../../arm-none-eabi/lib/thumb2/libc.a(lib_a-freer.o)
                              /opt/codesourcery/arm-2012.09/bin/../lib/gcc/arm-none-eabi/4.7.2/../../../../arm-none-eabi/lib/thumb2/libc.a(lib_a-malloc.o) (_free_r)
/opt/codesourcery/arm-2012.09/bin/../lib/gcc/arm-none-eabi/4.7.2/thumb2/libgcc.a(_udivsi3.o)
                              /opt/codesourcery/arm-2012.09/bin/../lib/gcc/arm-none-eabi/4.7.2/../../../../arm-none-eabi/lib/thumb2/libc.a(lib_a-strtol.o) (__aeabi_uidiv)
/opt/codesourcery/arm-2012.09/bin/../lib/gcc/arm-none-eabi/4.7.2/thumb2/libgcc.a(_dvmd_tls.o)
                              /opt/codesourcery/arm-2012.09/bin/../lib/gcc/arm-none-eabi/4.7.2/thumb2/libgcc.a(_udivsi3.o) (__aeabi_idiv0)

Allocating common symbols
Common symbol       size              file

SDIO_CmdInitStructure
                    0x14              ./Third_Party/fat_fs/src/sdio_sd.o
APP_Tx_Buffer       0x80              ./Third_Party/USB_Lib/cdc/usbd_cdc_vcp.o
xQueueRegistry      0x40              ./Third_Party/FreeRTOS/queue.o
SDCardInfo          0x58              ./Third_Party/fat_fs/src/sdio_sd.o
SDIO_InitStructure  0x18              ./Third_Party/fat_fs/src/sdio_sd.o
usbd_cdc_OtherCfgDesc
                    0x43              ./Third_Party/USB_Lib/cdc/usbd_cdc_core.o
SDIO_DataInitStructure
                    0x18              ./Third_Party/fat_fs/src/sdio_sd.o
APP_tx_ptr_tail     0x4               ./Third_Party/USB_Lib/cdc/usbd_cdc_vcp.o
USB_Rx_Buffer       0x40              ./Third_Party/USB_Lib/cdc/usbd_cdc_core.o
USART_InitStructure
                    0x10              ./Third_Party/USB_Lib/cdc/usbd_cdc_vcp.o
CmdBuff             0x8               ./Third_Party/USB_Lib/cdc/usbd_cdc_core.o
USB_OTG_dev         0x5f0             ./src/stm32f4xx_it.o
APP_Rx_Buffer       0x800             ./Third_Party/USB_Lib/cdc/usbd_cdc_core.o
NVIC_InitStructure  0x4               ./Drivers/stm32f4_discovery.o
USBD_StrDesc        0x32              ./Third_Party/USB_Lib/core/usbd_req.o
funcx               0x4               ./Applications/rawMessageHandler.o
APP_tx_ptr_head     0x4               ./Third_Party/USB_Lib/cdc/usbd_cdc_vcp.o

Discarded input sections

 .text          0x00000000        0x0 ./unit_test/SDTest.o
 .data          0x00000000        0x0 ./unit_test/SDTest.o
 .bss           0x00000000        0x0 ./unit_test/SDTest.o
 .data.outbuf   0x00000000      0x200 ./unit_test/SDTest.o
 .bss.inbuf     0x00000000      0x200 ./unit_test/SDTest.o
 .bss.i         0x00000000        0x4 ./unit_test/SDTest.o
 .text._ZN6HWTest8SDIOTestEv
                0x00000000        0x8 ./unit_test/SDTest.o
 .debug_info    0x00000000      0x10f ./unit_test/SDTest.o
 .debug_abbrev  0x00000000       0xba ./unit_test/SDTest.o
 .debug_loc     0x00000000       0x2c ./unit_test/SDTest.o
 .debug_aranges
                0x00000000       0x20 ./unit_test/SDTest.o
 .debug_ranges  0x00000000       0x10 ./unit_test/SDTest.o
 .debug_line    0x00000000      0x113 ./unit_test/SDTest.o
 .debug_str     0x00000000      0x137 ./unit_test/SDTest.o
 .comment       0x00000000       0x31 ./unit_test/SDTest.o
 .ARM.attributes
Memory Configuration

Name             Origin             Length             Attributes
FLASH            0x08000000         0x00100000         xr
RAM              0x20000000         0x00020000         xrw
CCM              0x10000000         0x00010000         xrw
*default*        0x00000000         0xffffffff

Linker script and memory map

LOAD ./unit_test/SDTest.o
LOAD ./unit_test/usb_cdc_test.o
LOAD ./system/STM32F4xx_StdPeriph_Driver/src/misc.o
LOAD ./system/STM32F4xx_StdPeriph_Driver/src/stm32f4xx_adc.o
LOAD ./system/STM32F4xx_StdPeriph_Driver/src/stm32f4xx_can.o
LOAD ./system/STM32F4xx_StdPeriph_Driver/src/stm32f4xx_crc.o
LOAD ./system/STM32F4xx_StdPeriph_Driver/src/stm32f4xx_cryp.o
LOAD ./system/STM32F4xx_StdPeriph_Driver/src/stm32f4xx_cryp_aes.o
LOAD ./system/STM32F4xx_StdPeriph_Driver/src/stm32f4xx_cryp_des.o
LOAD ./system/STM32F4xx_StdPeriph_Driver/src/stm32f4xx_cryp_tdes.o
LOAD ./system/STM32F4xx_StdPeriph_Driver/src/stm32f4xx_dac.o
LOAD ./system/STM32F4xx_StdPeriph_Driver/src/stm32f4xx_dbgmcu.o
LOAD ./system/STM32F4xx_StdPeriph_Driver/src/stm32f4xx_dcmi.o
LOAD ./system/STM32F4xx_StdPeriph_Driver/src/stm32f4xx_dma.o
LOAD ./system/STM32F4xx_StdPeriph_Driver/src/stm32f4xx_dma2d.o
LOAD ./system/STM32F4xx_StdPeriph_Driver/src/stm32f4xx_exti.o
LOAD ./system/STM32F4xx_StdPeriph_Driver/src/stm32f4xx_flash.o
LOAD ./system/STM32F4xx_StdPeriph_Driver/src/stm32f4xx_fsmc.o
LOAD ./system/STM32F4xx_StdPeriph_Driver/src/stm32f4xx_gpio.o
LOAD ./system/STM32F4xx_StdPeriph_Driver/src/stm32f4xx_hash.o
LOAD ./system/STM32F4xx_StdPeriph_Driver/src/stm32f4xx_hash_md5.o
LOAD ./system/STM32F4xx_StdPeriph_Driver/src/stm32f4xx_hash_sha1.o
LOAD ./system/STM32F4xx_StdPeriph_Driver/src/stm32f4xx_i2c.o
LOAD ./system/STM32F4xx_StdPeriph_Driver/src/stm32f4xx_iwdg.o
LOAD ./system/STM32F4xx_StdPeriph_Driver/src/stm32f4xx_ltdc.o
LOAD ./system/STM32F4xx_StdPeriph_Driver/src/stm32f4xx_pwr.o
LOAD ./system/STM32F4xx_StdPeriph_Driver/src/stm32f4xx_rcc.o
LOAD ./system/STM32F4xx_StdPeriph_Driver/src/stm32f4xx_rng.o
LOAD ./system/STM32F4xx_StdPeriph_Driver/src/stm32f4xx_rtc.o
LOAD ./system/STM32F4xx_StdPeriph_Driver/src/stm32f4xx_sai.o
LOAD ./system/STM32F4xx_StdPeriph_Driver/src/stm32f4xx_sdio.o
LOAD ./system/STM32F4xx_StdPeriph_Driver/src/stm32f4xx_spi.o
LOAD ./system/STM32F4xx_StdPeriph_Driver/src/stm32f4xx_syscfg.o
LOAD ./system/STM32F4xx_StdPeriph_Driver/src/stm32f4xx_tim.o
LOAD ./system/STM32F4xx_StdPeriph_Driver/src/stm32f4xx_usart.o
LOAD ./system/STM32F4xx_StdPeriph_Driver/src/stm32f4xx_wwdg.o
LOAD ./system/CMSIS/stm32/startup_stm32f40xx.o
LOAD ./system/CMSIS/stm32/system_stm32f4xx.o
LOAD ./system/syscalls.o
LOAD ./src/main.o
LOAD ./src/stm32f4xx_it.o
LOAD ./config/usb_config/usb_bsp.o
LOAD ./config/usb_config/usbd_desc.o
LOAD ./config/usb_config/usbd_usr.o
LOAD ./Third_Party/fat_fs/src/option/ccsbcs.o
LOAD ./Third_Party/fat_fs/src/option/syncobj.o
LOAD ./Third_Party/fat_fs/src/diskio.o
LOAD ./Third_Party/fat_fs/src/fattime.o
LOAD ./Third_Party/fat_fs/src/ff.o
LOAD ./Third_Party/fat_fs/src/sdio_sd.o
LOAD ./Third_Party/USB_Lib/otg/usb_core.o
LOAD ./Third_Party/USB_Lib/otg/usb_dcd.o
LOAD ./Third_Party/USB_Lib/otg/usb_dcd_int.o
LOAD ./Third_Party/USB_Lib/core/usbd_core.o
LOAD ./Third_Party/USB_Lib/core/usbd_ioreq.o
LOAD ./Third_Party/USB_Lib/core/usbd_req.o
LOAD ./Third_Party/USB_Lib/cdc/usbd_cdc_core.o
LOAD ./Third_Party/USB_Lib/cdc/usbd_cdc_vcp.o
LOAD ./Third_Party/FreeRTOS/portable/port.o
LOAD ./Third_Party/FreeRTOS/croutine.o
LOAD ./Third_Party/FreeRTOS/event_groups.o
LOAD ./Third_Party/FreeRTOS/heap_2.o
LOAD ./Third_Party/FreeRTOS/list.o
LOAD ./Third_Party/FreeRTOS/queue.o
LOAD ./Third_Party/FreeRTOS/tasks.o
LOAD ./Third_Party/FreeRTOS/timers.o
LOAD ./Drivers/HW.o
LOAD ./Drivers/LCD_4002.o
LOAD ./Drivers/SerialRS232.o
LOAD ./Drivers/stm32f4_discovery.o
LOAD ./Applications/CMainHandler.o
LOAD ./Applications/CSerialHandler.o
LOAD ./Applications/ClassMessage.o
LOAD ./Applications/LCDHandler.o
LOAD ./Applications/QueueBox.o
LOAD ./Applications/rawMessageHandler.o
LOAD ./Applications/test.o
LOAD /opt/codesourcery/arm-2012.09/bin/../lib/gcc/arm-none-eabi/4.7.2/../../../../arm-none-eabi/lib/thumb2/libstdc++.a
LOAD /opt/codesourcery/arm-2012.09/bin/../lib/gcc/arm-none-eabi/4.7.2/../../../../arm-none-eabi/lib/thumb2/libm.a
START GROUP
LOAD /opt/codesourcery/arm-2012.09/bin/../lib/gcc/arm-none-eabi/4.7.2/thumb2/libgcc.a
LOAD /opt/codesourcery/arm-2012.09/bin/../lib/gcc/arm-none-eabi/4.7.2/../../../../arm-none-eabi/lib/thumb2/libc.a
END GROUP
                0x20020000                _estack = 0x20020000
                0x00000000                _Min_Heap_Size = 0x0
                0x00000400                _Min_Stack_Size = 0x400

.isr_vector     0x08000000      0x188
                0x08000000                . = ALIGN (0x4)
 *(.isr_vector)
 .isr_vector    0x08000000      0x188 ./system/CMSIS/stm32/startup_stm32f40xx.o
                0x08000000                g_pfnVectors
                0x08000188                . = ALIGN (0x4)

.text           0x08000188     0xf524
                0x08000188                . = ALIGN (0x4)
 *(.text)
 .text          0x08000188        0xc /opt/codesourcery/arm-2012.09/bin/../lib/gcc/arm-none-eabi/4.7.2/../../../../arm-none-eabi/lib/thumb2/libc.a(lib_a-atexit.o)
                0x08000188                atexit
 .text          0x08000194       0x10 /opt/codesourcery/arm-2012.09/bin/../lib/gcc/arm-none-eabi/4.7.2/../../../../arm-none-eabi/lib/thumb2/libc.a(lib_a-atoi.o)
                0x08000194                atoi
                0x0800019c                _atoi_r
 .text          0x080001a4        0xc /opt/codesourcery/arm-2012.09/bin/../lib/gcc/arm-none-eabi/4.7.2/../../../../arm-none-eabi/lib/thumb2/libc.a(lib_a-errno.o)
                0x080001a4                __errno
 .text          0x080001b0       0x20 /opt/codesourcery/arm-2012.09/bin/../lib/gcc/arm-none-eabi/4.7.2/../../../../arm-none-eabi/lib/thumb2/libc.a(lib_a-malloc.o)
                0x080001b0                malloc
                0x080001c0                free
 .text          0x080001d0      0x598 /opt/codesourcery/arm-2012.09/bin/../lib/gcc/arm-none-eabi/4.7.2/../../../../arm-none-eabi/lib/thumb2/libc.a(lib_a-mallocr.o)
                0x080001d0                _malloc_r
 .text          0x08000768       0x64 /opt/codesourcery/arm-2012.09/bin/../lib/gcc/arm-none-eabi/4.7.2/../../../../arm-none-eabi/lib/thumb2/libc.a(lib_a-memcmp.o)
                0x08000768                memcmp
 .text          0x080007cc      0x174 /opt/codesourcery/arm-2012.09/bin/../lib/gcc/arm-none-eabi/4.7.2/../../../../arm-none-eabi/lib/thumb2/libc.a(lib_a-memcpy.o)
                0x080007cc                memcpy
 .text          0x08000940       0xcc /opt/codesourcery/arm-2012.09/bin/../lib/gcc/arm-none-eabi/4.7.2/../../../../arm-none-eabi/lib/thumb2/libc.a(lib_a-memset.o)
                0x08000940                memset
 .text          0x08000a0c        0x8 /opt/codesourcery/arm-2012.09/bin/../lib/gcc/arm-none-eabi/4.7.2/../../../../arm-none-eabi/lib/thumb2/libc.a(lib_a-mlock.o)
                0x08000a0c                __malloc_lock
                0x08000a10                __malloc_unlock
 .text          0x08000a14      0x160 /opt/codesourcery/arm-2012.09/bin/../lib/gcc/arm-none-eabi/4.7.2/../../../../arm-none-eabi/lib/thumb2/libc.a(lib_a-strtol.o)
                0x08000a14                _strtol_r
                0x08000b58                strtol
 .text          0x08000b74       0xe0 /opt/codesourcery/arm-2012.09/bin/../lib/gcc/arm-none-eabi/4.7.2/../../../../arm-none-eabi/lib/thumb2/libc.a(lib_a-__atexit.o)
                0x08000b74                __register_exitproc
 .text          0x08000c54      0x238 /opt/codesourcery/arm-2012.09/bin/../lib/gcc/arm-none-eabi/4.7.2/../../../../arm-none-eabi/lib/thumb2/libc.a(lib_a-freer.o)
                0x08000c54                _malloc_trim_r
                0x08000cf8                _free_r
 *fill*         0x08000e8c        0x4 
 .text          0x08000e90      0x278 /opt/codesourcery/arm-2012.09/bin/../lib/gcc/arm-none-eabi/4.7.2/thumb2/libgcc.a(_udivsi3.o)
                0x08000e90                __udivsi3
                0x08000e90                __aeabi_uidiv
                0x080010ec                __aeabi_uidivmod
 .text          0x08001108        0x4 /opt/codesourcery/arm-2012.09/bin/../lib/gcc/arm-none-eabi/4.7.2/thumb2/libgcc.a(_dvmd_tls.o)
                0x08001108                __aeabi_ldiv0
                0x08001108                __aeabi_idiv0
 *(.text*)
 .text.NVIC_PriorityGroupConfig
                0x0800110c       0x24 ./system/STM32F4xx_StdPeriph_Driver/src/misc.o
                0x0800110c                NVIC_PriorityGroupConfig
 .text.NVIC_Init
                0x08001130       0xd4 ./system/STM32F4xx_StdPeriph_Driver/src/misc.o
                0x08001130                NVIC_Init
 .text.DMA_DeInit
                0x08001204      0x1b4 ./system/STM32F4xx_StdPeriph_Driver/src/stm32f4xx_dma.o
                0x08001204                DMA_DeInit
 .text.DMA_Init
                0x080013b8       0xb0 ./system/STM32F4xx_StdPeriph_Driver/src/stm32f4xx_dma.o
                0x080013b8                DMA_Init
 .text.DMA_Cmd  0x08001468       0x38 ./system/STM32F4xx_StdPeriph_Driver/src/stm32f4xx_dma.o
                0x08001468                DMA_Cmd
 .text.DMA_FlowControllerConfig
                0x080014a0       0x34 ./system/STM32F4xx_StdPeriph_Driver/src/stm32f4xx_dma.o
                0x080014a0                DMA_FlowControllerConfig
 .text.DMA_ClearFlag
                0x080014d4       0x5c ./system/STM32F4xx_StdPeriph_Driver/src/stm32f4xx_dma.o
                0x080014d4                DMA_ClearFlag
 .text.DMA_ITConfig
                0x08001530       0x74 ./system/STM32F4xx_StdPeriph_Driver/src/stm32f4xx_dma.o
                0x08001530                DMA_ITConfig
 .text.EXTI_Init
                0x080015a4       0xe8 ./system/STM32F4xx_StdPeriph_Driver/src/stm32f4xx_exti.o
                0x080015a4                EXTI_Init
 .text.GPIO_Init
                0x0800168c      0x144 ./system/STM32F4xx_StdPeriph_Driver/src/stm32f4xx_gpio.o
                0x0800168c                GPIO_Init
 .text.GPIO_WriteBit
                0x080017d0       0x30 ./system/STM32F4xx_StdPeriph_Driver/src/stm32f4xx_gpio.o
                0x080017d0                GPIO_WriteBit
 .text.GPIO_PinAFConfig
                0x08001800       0xa8 ./system/STM32F4xx_StdPeriph_Driver/src/stm32f4xx_gpio.o
                0x08001800                GPIO_PinAFConfig
 .text.RCC_GetClocksFreq
                0x080018a8      0x178 ./system/STM32F4xx_StdPeriph_Driver/src/stm32f4xx_rcc.o
                0x080018a8                RCC_GetClocksFreq
 .text.RCC_AHB1PeriphClockCmd
                0x08001a20       0x40 ./system/STM32F4xx_StdPeriph_Driver/src/stm32f4xx_rcc.o
                0x08001a20                RCC_AHB1PeriphClockCmd
 .text.RCC_AHB2PeriphClockCmd
                0x08001a60       0x40 ./system/STM32F4xx_StdPeriph_Driver/src/stm32f4xx_rcc.o
                0x08001a60                RCC_AHB2PeriphClockCmd
 .text.RCC_APB1PeriphClockCmd
                0x08001aa0       0x40 ./system/STM32F4xx_StdPeriph_Driver/src/stm32f4xx_rcc.o
                0x08001aa0                RCC_APB1PeriphClockCmd
 .text.RCC_APB2PeriphClockCmd
                0x08001ae0       0x40 ./system/STM32F4xx_StdPeriph_Driver/src/stm32f4xx_rcc.o
                0x08001ae0                RCC_APB2PeriphClockCmd
 .text.RCC_APB1PeriphResetCmd
                0x08001b20       0x40 ./system/STM32F4xx_StdPeriph_Driver/src/stm32f4xx_rcc.o
                0x08001b20                RCC_APB1PeriphResetCmd
 .text.RCC_APB2PeriphResetCmd
                0x08001b60       0x40 ./system/STM32F4xx_StdPeriph_Driver/src/stm32f4xx_rcc.o
                0x08001b60                RCC_APB2PeriphResetCmd
 .text.SDIO_DeInit
                0x08001ba0       0x20 ./system/STM32F4xx_StdPeriph_Driver/src/stm32f4xx_sdio.o
                0x08001ba0                SDIO_DeInit
 .text.SDIO_Init
                0x08001bc0       0x60 ./system/STM32F4xx_StdPeriph_Driver/src/stm32f4xx_sdio.o
                0x08001bc0                SDIO_Init
 .text.SDIO_ClockCmd
                0x08001c20       0x20 ./system/STM32F4xx_StdPeriph_Driver/src/stm32f4xx_sdio.o
                0x08001c20                SDIO_ClockCmd
 .text.SDIO_SetPowerState
                0x08001c40       0x1c ./system/STM32F4xx_StdPeriph_Driver/src/stm32f4xx_sdio.o
                0x08001c40                SDIO_SetPowerState
 .text.SDIO_GetPowerState
                0x08001c5c       0x18 ./system/STM32F4xx_StdPeriph_Driver/src/stm32f4xx_sdio.o
                0x08001c5c                SDIO_GetPowerState
 .text.SDIO_SendCommand
                0x08001c74       0x58 ./system/STM32F4xx_StdPeriph_Driver/src/stm32f4xx_sdio.o
                0x08001c74                SDIO_SendCommand
 .text.SDIO_GetCommandResponse
                0x08001ccc       0x18 ./system/STM32F4xx_StdPeriph_Driver/src/stm32f4xx_sdio.o
                0x08001ccc                SDIO_GetCommandResponse
 .text.SDIO_GetResponse
                0x08001ce4       0x2c ./system/STM32F4xx_StdPeriph_Driver/src/stm32f4xx_sdio.o
                0x08001ce4                SDIO_GetResponse
 .text.SDIO_DataConfig
                0x08001d10       0x5c ./system/STM32F4xx_StdPeriph_Driver/src/stm32f4xx_sdio.o
                0x08001d10                SDIO_DataConfig
 .text.SDIO_ReadData
                0x08001d6c       0x18 ./system/STM32F4xx_StdPeriph_Driver/src/stm32f4xx_sdio.o
                0x08001d6c                SDIO_ReadData
 .text.SDIO_DMACmd
                0x08001d84       0x20 ./system/STM32F4xx_StdPeriph_Driver/src/stm32f4xx_sdio.o
                0x08001d84                SDIO_DMACmd
 .text.SDIO_ITConfig
                0x08001da4       0x40 ./system/STM32F4xx_StdPeriph_Driver/src/stm32f4xx_sdio.o
                0x08001da4                SDIO_ITConfig
 .text.SDIO_GetFlagStatus
                0x08001de4       0x3c ./system/STM32F4xx_StdPeriph_Driver/src/stm32f4xx_sdio.o
                0x08001de4                SDIO_GetFlagStatus
 .text.SDIO_ClearFlag
                0x08001e20       0x1c ./system/STM32F4xx_StdPeriph_Driver/src/stm32f4xx_sdio.o
                0x08001e20                SDIO_ClearFlag
 .text.SDIO_GetITStatus
                0x08001e3c       0x3c ./system/STM32F4xx_StdPeriph_Driver/src/stm32f4xx_sdio.o
                0x08001e3c                SDIO_GetITStatus
 .text.SDIO_ClearITPendingBit
                0x08001e78       0x1c ./system/STM32F4xx_StdPeriph_Driver/src/stm32f4xx_sdio.o
                0x08001e78                SDIO_ClearITPendingBit
 .text.SYSCFG_EXTILineConfig
                0x08001e94       0x98 ./system/STM32F4xx_StdPeriph_Driver/src/stm32f4xx_syscfg.o
                0x08001e94                SYSCFG_EXTILineConfig
 .text.USART_Init
                0x08001f2c      0x19c ./system/STM32F4xx_StdPeriph_Driver/src/stm32f4xx_usart.o
                0x08001f2c                USART_Init
 .text.USART_Cmd
                0x080020c8       0x40 ./system/STM32F4xx_StdPeriph_Driver/src/stm32f4xx_usart.o
                0x080020c8                USART_Cmd
 .text.USART_ReceiveData
                0x08002108       0x24 ./system/STM32F4xx_StdPeriph_Driver/src/stm32f4xx_usart.o
                0x08002108                USART_ReceiveData
 .text.USART_ITConfig
                0x0800212c       0xa4 ./system/STM32F4xx_StdPeriph_Driver/src/stm32f4xx_usart.o
                0x0800212c                USART_ITConfig
 .text.USART_GetITStatus
                0x080021d0       0xc4 ./system/STM32F4xx_StdPeriph_Driver/src/stm32f4xx_usart.o
                0x080021d0                USART_GetITStatus
 .text.Reset_Handler
                0x08002294       0x4c ./system/CMSIS/stm32/startup_stm32f40xx.o
                0x08002294                Reset_Handler
 .text.Default_Handler
                0x080022e0        0x4 ./system/CMSIS/stm32/startup_stm32f40xx.o
                0x080022e0                RTC_Alarm_IRQHandler
                0x080022e0                HASH_RNG_IRQHandler
                0x080022e0                EXTI2_IRQHandler
                0x080022e0                TIM1_CC_IRQHandler
                0x080022e0                DMA2_Stream5_IRQHandler
                0x080022e0                DMA1_Stream5_IRQHandler
                0x080022e0                PVD_IRQHandler
                0x080022e0                TAMP_STAMP_IRQHandler
                0x080022e0                CAN2_RX1_IRQHandler
                0x080022e0                EXTI3_IRQHandler
                0x080022e0                TIM1_UP_TIM10_IRQHandler
                0x080022e0                I2C3_ER_IRQHandler
                0x080022e0                EXTI0_IRQHandler
                0x080022e0                I2C2_EV_IRQHandler
                0x080022e0                DMA1_Stream2_IRQHandler
                0x080022e0                CAN1_RX0_IRQHandler
                0x080022e0                FPU_IRQHandler
                0x080022e0                OTG_HS_WKUP_IRQHandler
                0x080022e0                CAN2_SCE_IRQHandler
                0x080022e0                DMA2_Stream2_IRQHandler
                0x080022e0                SPI1_IRQHandler
                0x080022e0                TIM6_DAC_IRQHandler
                0x080022e0                TIM1_BRK_TIM9_IRQHandler
                0x080022e0                DCMI_IRQHandler
                0x080022e0                CAN2_RX0_IRQHandler
                0x080022e0                CRYP_IRQHandler
                0x080022e0                CAN1_RX1_IRQHandler
                0x080022e0                DMA2_Stream0_IRQHandler
                0x080022e0                I2C1_EV_IRQHandler
                0x080022e0                DMA1_Stream6_IRQHandler
                0x080022e0                DMA1_Stream1_IRQHandler
                0x080022e0                TIM3_IRQHandler
                0x080022e0                RCC_IRQHandler
                0x080022e0                TIM8_BRK_TIM12_IRQHandler
                0x080022e0                Default_Handler
                0x080022e0                EXTI15_10_IRQHandler
                0x080022e0                ADC_IRQHandler
                0x080022e0                DMA1_Stream7_IRQHandler
                0x080022e0                TIM7_IRQHandler
                0x080022e0                CAN2_TX_IRQHandler
                0x080022e0                TIM5_IRQHandler
                0x080022e0                DMA2_Stream7_IRQHandler
                0x080022e0                I2C3_EV_IRQHandler
                0x080022e0                EXTI9_5_IRQHandler
                0x080022e0                RTC_WKUP_IRQHandler
                0x080022e0                ETH_WKUP_IRQHandler
                0x080022e0                SPI2_IRQHandler
                0x080022e0                OTG_HS_EP1_IN_IRQHandler
                0x080022e0                DMA1_Stream0_IRQHandler
                0x080022e0                CAN1_TX_IRQHandler
                0x080022e0                EXTI4_IRQHandler
                0x080022e0                FSMC_IRQHandler
                0x080022e0                ETH_IRQHandler
                0x080022e0                OTG_HS_EP1_OUT_IRQHandler
                0x080022e0                TIM2_IRQHandler
                0x080022e0                OTG_FS_WKUP_IRQHandler
                0x080022e0                TIM1_TRG_COM_TIM11_IRQHandler
                0x080022e0                OTG_HS_IRQHandler
                0x080022e0                I2C2_ER_IRQHandler
                0x080022e0                DMA2_Stream1_IRQHandler
                0x080022e0                CAN1_SCE_IRQHandler
                0x080022e0                FLASH_IRQHandler
                0x080022e0                DMA2_Stream4_IRQHandler
                0x080022e0                SPI3_IRQHandler
                0x080022e0                DMA1_Stream4_IRQHandler
                0x080022e0                I2C1_ER_IRQHandler
                0x080022e0                DMA2_Stream6_IRQHandler
                0x080022e0                DMA1_Stream3_IRQHandler
 .text.SystemInit
                0x080022e4       0x6c ./system/CMSIS/stm32/system_stm32f4xx.o
                0x080022e4                SystemInit
 .text.SetSysClock
                0x08002350      0x100 ./system/CMSIS/stm32/system_stm32f4xx.o
 .text._sbrk_r  0x08002450       0x60 ./system/syscalls.o
                0x08002450                _sbrk_r
 .text.main     0x080024b0       0x28 ./src/main.o
                0x080024b0                main
 .text.NMI_Handler
                0x080024d8        0xc ./src/stm32f4xx_it.o
                0x080024d8                NMI_Handler
 .text.HardFault_Handler
                0x080024e4        0x8 ./src/stm32f4xx_it.o
                0x080024e4                HardFault_Handler
 .text.MemManage_Handler
                0x080024ec        0x8 ./src/stm32f4xx_it.o
                0x080024ec                MemManage_Handler
 .text.BusFault_Handler
                0x080024f4        0x8 ./src/stm32f4xx_it.o
                0x080024f4                BusFault_Handler
 .text.UsageFault_Handler
                0x080024fc        0x8 ./src/stm32f4xx_it.o
                0x080024fc                UsageFault_Handler
 .text.DebugMon_Handler
                0x08002504        0xc ./src/stm32f4xx_it.o
                0x08002504                DebugMon_Handler
 .text.EXTI1_IRQHandler
                0x08002510        0xc ./src/stm32f4xx_it.o
                0x08002510                EXTI1_IRQHandler
 .text.TIM4_IRQHandler
                0x0800251c        0xc ./src/stm32f4xx_it.o
                0x0800251c                TIM4_IRQHandler
 .text.WWDG_IRQHandler
                0x08002528        0xc ./src/stm32f4xx_it.o
                0x08002528                WWDG_IRQHandler
 .text.USART6_IRQHandler
                0x08002534        0xc ./src/stm32f4xx_it.o
                0x08002534                USART6_IRQHandler
 .text.USART3_IRQHandler
                0x08002540        0xc ./src/stm32f4xx_it.o
                0x08002540                USART3_IRQHandler
 .text.USART2_IRQHandler
                0x0800254c       0x74 ./src/stm32f4xx_it.o
                0x0800254c                USART2_IRQHandler
 .text.USART1_IRQHandler
                0x080025c0        0xc ./src/stm32f4xx_it.o
                0x080025c0                USART1_IRQHandler
 .text.UART5_IRQHandler
                0x080025cc        0xc ./src/stm32f4xx_it.o
                0x080025cc                UART5_IRQHandler
 .text.UART4_IRQHandler
                0x080025d8        0xc ./src/stm32f4xx_it.o
                0x080025d8                UART4_IRQHandler
 .text.TIM8_UP_TIM13_IRQHandler
                0x080025e4        0xc ./src/stm32f4xx_it.o
                0x080025e4                TIM8_UP_TIM13_IRQHandler
 .text.TIM8_TRG_COM_TIM14_IRQHandler
                0x080025f0        0xc ./src/stm32f4xx_it.o
                0x080025f0                TIM8_TRG_COM_TIM14_IRQHandler
 .text.TIM8_CC_IRQHandler
                0x080025fc        0xc ./src/stm32f4xx_it.o
                0x080025fc                TIM8_CC_IRQHandler
 .text.OTG_FS_IRQHandler
                0x08002608       0x34 ./src/stm32f4xx_it.o
                0x08002608                OTG_FS_IRQHandler
 .text.USB_OTG_BSP_Init
                0x0800263c       0xd8 ./config/usb_config/usb_bsp.o
                0x0800263c                USB_OTG_BSP_Init
 .text.USB_OTG_BSP_EnableInterrupt
                0x08002714       0x3c ./config/usb_config/usb_bsp.o
                0x08002714                USB_OTG_BSP_EnableInterrupt
 .text.USB_OTG_BSP_uDelay
                0x08002750       0x58 ./config/usb_config/usb_bsp.o
                0x08002750                USB_OTG_BSP_uDelay
 .text.USB_OTG_BSP_mDelay
                0x080027a8       0x20 ./config/usb_config/usb_bsp.o
                0x080027a8                USB_OTG_BSP_mDelay
 .text.USBD_USR_DeviceDescriptor
                0x080027c8       0x28 ./config/usb_config/usbd_desc.o
                0x080027c8                USBD_USR_DeviceDescriptor
 .text.USBD_USR_LangIDStrDescriptor
                0x080027f0       0x28 ./config/usb_config/usbd_desc.o
                0x080027f0                USBD_USR_LangIDStrDescriptor
 .text.USBD_USR_ProductStrDescriptor
                0x08002818       0x40 ./config/usb_config/usbd_desc.o
                0x08002818                USBD_USR_ProductStrDescriptor
 .text.USBD_USR_ManufacturerStrDescriptor
                0x08002858       0x2c ./config/usb_config/usbd_desc.o
                0x08002858                USBD_USR_ManufacturerStrDescriptor
 .text.USBD_USR_SerialStrDescriptor
                0x08002884       0x40 ./config/usb_config/usbd_desc.o
                0x08002884                USBD_USR_SerialStrDescriptor
 .text.USBD_USR_ConfigStrDescriptor
                0x080028c4       0x3c ./config/usb_config/usbd_desc.o
                0x080028c4                USBD_USR_ConfigStrDescriptor
 .text.USBD_USR_InterfaceStrDescriptor
                0x08002900       0x3c ./config/usb_config/usbd_desc.o
                0x08002900                USBD_USR_InterfaceStrDescriptor
 .text.USBD_USR_Init
                0x0800293c        0xc ./config/usb_config/usbd_usr.o
                0x0800293c                USBD_USR_Init
 .text.USBD_USR_DeviceReset
                0x08002948       0x28 ./config/usb_config/usbd_usr.o
                0x08002948                USBD_USR_DeviceReset
 .text.USBD_USR_DeviceConfigured
                0x08002970        0xc ./config/usb_config/usbd_usr.o
                0x08002970                USBD_USR_DeviceConfigured
 .text.USBD_USR_DeviceConnected
                0x0800297c        0xc ./config/usb_config/usbd_usr.o
                0x0800297c                USBD_USR_DeviceConnected
 .text.USBD_USR_DeviceDisconnected
                0x08002988        0xc ./config/usb_config/usbd_usr.o
                0x08002988                USBD_USR_DeviceDisconnected
 .text.USBD_USR_DeviceSuspended
                0x08002994        0xc ./config/usb_config/usbd_usr.o
                0x08002994                USBD_USR_DeviceSuspended
 .text.USBD_USR_DeviceResumed
                0x080029a0        0xc ./config/usb_config/usbd_usr.o
                0x080029a0                USBD_USR_DeviceResumed
 .text.ff_convert
                0x080029ac       0x80 ./Third_Party/fat_fs/src/option/ccsbcs.o
                0x080029ac                ff_convert
 .text.ff_wtoupper
                0x08002a2c       0x60 ./Third_Party/fat_fs/src/option/ccsbcs.o
                0x08002a2c                ff_wtoupper
 .text.disk_initialize
                0x08002a8c       0x40 ./Third_Party/fat_fs/src/diskio.o
                0x08002a8c                disk_initialize
 .text.disk_status
                0x08002acc       0x40 ./Third_Party/fat_fs/src/diskio.o
                0x08002acc                disk_status
 .text.disk_read
                0x08002b0c       0x84 ./Third_Party/fat_fs/src/diskio.o
                0x08002b0c                disk_read
 .text.disk_write
                0x08002b90       0x84 ./Third_Party/fat_fs/src/diskio.o
                0x08002b90                disk_write
 .text.disk_ioctl
                0x08002c14       0x68 ./Third_Party/fat_fs/src/diskio.o
                0x08002c14                disk_ioctl
 .text.get_fattime
                0x08002c7c       0x10 ./Third_Party/fat_fs/src/fattime.o
                0x08002c7c                get_fattime
 .text.mem_cpy  0x08002c8c       0x50 ./Third_Party/fat_fs/src/ff.o
 .text.mem_set  0x08002cdc       0x44 ./Third_Party/fat_fs/src/ff.o
 .text.mem_cmp  0x08002d20       0x74 ./Third_Party/fat_fs/src/ff.o
 .text.chk_chr  0x08002d94       0x3c ./Third_Party/fat_fs/src/ff.o
 .text.move_window
                0x08002dd0       0xd4 ./Third_Party/fat_fs/src/ff.o
 .text.sync     0x08002ea4      0x180 ./Third_Party/fat_fs/src/ff.o
 .text.get_fat  0x08003024      0x218 ./Third_Party/fat_fs/src/ff.o
                0x08003024                get_fat
 .text.put_fat  0x0800323c      0x298 ./Third_Party/fat_fs/src/ff.o
                0x0800323c                put_fat
 .text.remove_chain
                0x080034d4       0xb0 ./Third_Party/fat_fs/src/ff.o
 .text.create_chain
                0x08003584      0x11c ./Third_Party/fat_fs/src/ff.o
 .text.clust2sect
                0x080036a0       0x44 ./Third_Party/fat_fs/src/ff.o
                0x080036a0                clust2sect
 .text.dir_seek
                0x080036e4      0x150 ./Third_Party/fat_fs/src/ff.o
 .text.dir_next
                0x08003834      0x218 ./Third_Party/fat_fs/src/ff.o
 .text.cmp_lfn  0x08003a4c       0xf8 ./Third_Party/fat_fs/src/ff.o
 .text.fit_lfn  0x08003b44      0x108 ./Third_Party/fat_fs/src/ff.o
 .text.gen_numname
                0x08003c4c      0x110 ./Third_Party/fat_fs/src/ff.o
                0x08003c4c                gen_numname
 .text.sum_sfn  0x08003d5c       0x50 ./Third_Party/fat_fs/src/ff.o
 .text.dir_find
                0x08003dac      0x170 ./Third_Party/fat_fs/src/ff.o
 .text.dir_register
                0x08003f1c      0x2ac ./Third_Party/fat_fs/src/ff.o
 .text.create_name
                0x080041c8      0x3a4 ./Third_Party/fat_fs/src/ff.o
 .text.follow_path
                0x0800456c      0x118 ./Third_Party/fat_fs/src/ff.o
 .text.check_fs
                0x08004684       0xdc ./Third_Party/fat_fs/src/ff.o
 .text.chk_mounted
                0x08004760      0x530 ./Third_Party/fat_fs/src/ff.o
                0x08004760                chk_mounted
 .text.validate
                0x08004c90       0x54 ./Third_Party/fat_fs/src/ff.o
 .text.f_mount  0x08004ce4       0x5c ./Third_Party/fat_fs/src/ff.o
                0x08004ce4                f_mount
 .text.f_open   0x08004d40      0x36c ./Third_Party/fat_fs/src/ff.o
                0x08004d40                f_open
 .text.f_read   0x080050ac      0x348 ./Third_Party/fat_fs/src/ff.o
                0x080050ac                f_read
 .text.f_sync   0x080053f4      0x1c0 ./Third_Party/fat_fs/src/ff.o
                0x080053f4                f_sync
 .text.f_close  0x080055b4       0x2c ./Third_Party/fat_fs/src/ff.o
                0x080055b4                f_close
 .text.f_gets   0x080055e0       0x94 ./Third_Party/fat_fs/src/ff.o
                0x080055e0                f_gets
 .text.NVIC_EnableIRQ
                0x08005674       0x34 ./Third_Party/fat_fs/src/sdio_sd.o
 .text.NVIC_SetPriority
                0x080056a8       0x58 ./Third_Party/fat_fs/src/sdio_sd.o
 .text.SD_Init  0x08005700       0xf8 ./Third_Party/fat_fs/src/sdio_sd.o
                0x08005700                SD_Init
 .text.SD_GetStatus
                0x080057f8       0x3c ./Third_Party/fat_fs/src/sdio_sd.o
                0x080057f8                SD_GetStatus
 .text.SD_GetState
                0x08005834       0x4c ./Third_Party/fat_fs/src/sdio_sd.o
                0x08005834                SD_GetState
 .text.SD_Detect
                0x08005880       0x1c ./Third_Party/fat_fs/src/sdio_sd.o
                0x08005880                SD_Detect
 .text.SD_PowerON
                0x0800589c      0x288 ./Third_Party/fat_fs/src/sdio_sd.o
                0x0800589c                SD_PowerON
 .text.SD_InitializeCards
                0x08005b24      0x1c4 ./Third_Party/fat_fs/src/sdio_sd.o
                0x08005b24                SD_InitializeCards
 .text.SD_GetCardInfo
                0x08005ce8      0x660 ./Third_Party/fat_fs/src/sdio_sd.o
                0x08005ce8                SD_GetCardInfo
 .text.SD_EnableWideBusOperation
                0x08006348       0xf8 ./Third_Party/fat_fs/src/sdio_sd.o
                0x08006348                SD_EnableWideBusOperation
 .text.SD_SelectDeselect
                0x08006440       0x58 ./Third_Party/fat_fs/src/sdio_sd.o
                0x08006440                SD_SelectDeselect
 .text.SD_ReadMultiBlocksFIXED
                0x08006498      0x168 ./Third_Party/fat_fs/src/sdio_sd.o
                0x08006498                SD_ReadMultiBlocksFIXED
 .text.SD_WaitReadOperation
                0x08006600       0xc4 ./Third_Party/fat_fs/src/sdio_sd.o
                0x08006600                SD_WaitReadOperation
 .text.SD_WriteMultiBlocksFIXED
                0x080066c4      0x208 ./Third_Party/fat_fs/src/sdio_sd.o
                0x080066c4                SD_WriteMultiBlocksFIXED
 .text.SD_WaitWriteOperation
                0x080068cc       0xc4 ./Third_Party/fat_fs/src/sdio_sd.o
                0x080068cc                SD_WaitWriteOperation
 .text.SD_StopTransfer
                0x08006990       0x58 ./Third_Party/fat_fs/src/sdio_sd.o
                0x08006990                SD_StopTransfer
 .text.SD_SendStatus
                0x080069e8       0x88 ./Third_Party/fat_fs/src/sdio_sd.o
                0x080069e8                SD_SendStatus
 .text.SDIO_IRQHandler
                0x08006a70        0xc ./Third_Party/fat_fs/src/sdio_sd.o
                0x08006a70                SDIO_IRQHandler
 .text.DMA2_Stream3_IRQHandler
                0x08006a7c        0xc ./Third_Party/fat_fs/src/sdio_sd.o
                0x08006a7c                DMA2_Stream3_IRQHandler
 .text.SD_ProcessIRQSrc
                0x08006a88       0xe8 ./Third_Party/fat_fs/src/sdio_sd.o
                0x08006a88                SD_ProcessIRQSrc
 .text.SD_ProcessDMAIRQ
                0x08006b70       0x30 ./Third_Party/fat_fs/src/sdio_sd.o
                0x08006b70                SD_ProcessDMAIRQ
 .text.CmdError
                0x08006ba0       0x54 ./Third_Party/fat_fs/src/sdio_sd.o
 .text.CmdResp7Error
                0x08006bf4       0x88 ./Third_Party/fat_fs/src/sdio_sd.o
 .text.CmdResp1Error
                0x08006c7c      0x1d8 ./Third_Party/fat_fs/src/sdio_sd.o
 .text.CmdResp3Error
                0x08006e54       0x58 ./Third_Party/fat_fs/src/sdio_sd.o
 .text.CmdResp2Error
                0x08006eac       0x74 ./Third_Party/fat_fs/src/sdio_sd.o
 .text.CmdResp6Error
                0x08006f20       0xe4 ./Third_Party/fat_fs/src/sdio_sd.o
 .text.SDEnWideBus
                0x08007004      0x1b8 ./Third_Party/fat_fs/src/sdio_sd.o
 .text.FindSCR  0x080071bc      0x264 ./Third_Party/fat_fs/src/sdio_sd.o
 .text.SD_LowLevel_Init
                0x08007420       0xdc ./Third_Party/fat_fs/src/sdio_sd.o
                0x08007420                SD_LowLevel_Init
 .text.SD_LowLevel_DMA_RxConfig
                0x080074fc       0xb8 ./Third_Party/fat_fs/src/sdio_sd.o
                0x080074fc                SD_LowLevel_DMA_RxConfig
 .text.SD_LowLevel_DMA_TxConfig
                0x080075b4       0xb8 ./Third_Party/fat_fs/src/sdio_sd.o
                0x080075b4                SD_LowLevel_DMA_TxConfig
 .text.USB_OTG_EnableCommonInt
                0x0800766c       0x44 ./Third_Party/USB_Lib/otg/usb_core.o
 .text.USB_OTG_CoreReset
                0x080076b0       0xa4 ./Third_Party/USB_Lib/otg/usb_core.o
 .text.USB_OTG_WritePacket
                0x08007754       0x84 ./Third_Party/USB_Lib/otg/usb_core.o
                0x08007754                USB_OTG_WritePacket
 .text.USB_OTG_ReadPacket
                0x080077d8       0x68 ./Third_Party/USB_Lib/otg/usb_core.o
                0x080077d8                USB_OTG_ReadPacket
 .text.USB_OTG_SelectCore
                0x08007840      0x1b0 ./Third_Party/USB_Lib/otg/usb_core.o
                0x08007840                USB_OTG_SelectCore
 .text.USB_OTG_CoreInit
                0x080079f0      0x1f8 ./Third_Party/USB_Lib/otg/usb_core.o
                0x080079f0                USB_OTG_CoreInit
 .text.USB_OTG_EnableGlobalInt
                0x08007be8       0x3c ./Third_Party/USB_Lib/otg/usb_core.o
                0x08007be8                USB_OTG_EnableGlobalInt
 .text.USB_OTG_DisableGlobalInt
                0x08007c24       0x40 ./Third_Party/USB_Lib/otg/usb_core.o
                0x08007c24                USB_OTG_DisableGlobalInt
 .text.USB_OTG_FlushTxFifo
                0x08007c64       0x80 ./Third_Party/USB_Lib/otg/usb_core.o
                0x08007c64                USB_OTG_FlushTxFifo
 .text.USB_OTG_FlushRxFifo
                0x08007ce4       0x6c ./Third_Party/USB_Lib/otg/usb_core.o
                0x08007ce4                USB_OTG_FlushRxFifo
 .text.USB_OTG_SetCurrentMode
                0x08007d50       0x64 ./Third_Party/USB_Lib/otg/usb_core.o
                0x08007d50                USB_OTG_SetCurrentMode
 .text.USB_OTG_GetMode
                0x08007db4       0x20 ./Third_Party/USB_Lib/otg/usb_core.o
                0x08007db4                USB_OTG_GetMode
 .text.USB_OTG_IsDeviceMode
                0x08007dd4       0x24 ./Third_Party/USB_Lib/otg/usb_core.o
                0x08007dd4                USB_OTG_IsDeviceMode
 .text.USB_OTG_ReadCoreItr
                0x08007df8       0x30 ./Third_Party/USB_Lib/otg/usb_core.o
                0x08007df8                USB_OTG_ReadCoreItr
 .text.USB_OTG_InitDevSpeed
                0x08007e28       0x38 ./Third_Party/USB_Lib/otg/usb_core.o
                0x08007e28                USB_OTG_InitDevSpeed
 .text.USB_OTG_CoreInitDev
                0x08007e60      0x2d4 ./Third_Party/USB_Lib/otg/usb_core.o
                0x08007e60                USB_OTG_CoreInitDev
 .text.USB_OTG_EnableDevInt
                0x08008134       0xa4 ./Third_Party/USB_Lib/otg/usb_core.o
                0x08008134                USB_OTG_EnableDevInt
 .text.USB_OTG_GetDeviceSpeed
                0x080081d8       0x50 ./Third_Party/USB_Lib/otg/usb_core.o
                0x080081d8                USB_OTG_GetDeviceSpeed
 .text.USB_OTG_EP0Activate
                0x08008228       0x80 ./Third_Party/USB_Lib/otg/usb_core.o
                0x08008228                USB_OTG_EP0Activate
 .text.USB_OTG_EPActivate
                0x080082a8       0xf8 ./Third_Party/USB_Lib/otg/usb_core.o
                0x080082a8                USB_OTG_EPActivate
 .text.USB_OTG_EPDeactivate
                0x080083a0       0xa4 ./Third_Party/USB_Lib/otg/usb_core.o
                0x080083a0                USB_OTG_EPDeactivate
 .text.USB_OTG_EPStartXfer
                0x08008444      0x2d0 ./Third_Party/USB_Lib/otg/usb_core.o
                0x08008444                USB_OTG_EPStartXfer
 .text.USB_OTG_EP0StartXfer
                0x08008714      0x200 ./Third_Party/USB_Lib/otg/usb_core.o
                0x08008714                USB_OTG_EP0StartXfer
 .text.USB_OTG_EPSetStall
                0x08008914       0x94 ./Third_Party/USB_Lib/otg/usb_core.o
                0x08008914                USB_OTG_EPSetStall
 .text.USB_OTG_EPClearStall
                0x080089a8       0x84 ./Third_Party/USB_Lib/otg/usb_core.o
                0x080089a8                USB_OTG_EPClearStall
 .text.USB_OTG_ReadDevAllOutEp_itr
                0x08008a2c       0x30 ./Third_Party/USB_Lib/otg/usb_core.o
                0x08008a2c                USB_OTG_ReadDevAllOutEp_itr
 .text.USB_OTG_ReadDevOutEP_itr
                0x08008a5c       0x3c ./Third_Party/USB_Lib/otg/usb_core.o
                0x08008a5c                USB_OTG_ReadDevOutEP_itr
 .text.USB_OTG_ReadDevAllInEPItr
                0x08008a98       0x34 ./Third_Party/USB_Lib/otg/usb_core.o
                0x08008a98                USB_OTG_ReadDevAllInEPItr
 .text.USB_OTG_EP0_OutStart
                0x08008acc       0x78 ./Third_Party/USB_Lib/otg/usb_core.o
                0x08008acc                USB_OTG_EP0_OutStart
 .text.DCD_Init
                0x08008b44      0x12c ./Third_Party/USB_Lib/otg/usb_dcd.o
                0x08008b44                DCD_Init
 .text.DCD_EP_Open
                0x08008c70       0xac ./Third_Party/USB_Lib/otg/usb_dcd.o
                0x08008c70                DCD_EP_Open
 .text.DCD_EP_Close
                0x08008d1c       0x80 ./Third_Party/USB_Lib/otg/usb_dcd.o
                0x08008d1c                DCD_EP_Close
 .text.DCD_EP_PrepareRx
                0x08008d9c       0x8c ./Third_Party/USB_Lib/otg/usb_dcd.o
                0x08008d9c                DCD_EP_PrepareRx
 .text.DCD_EP_Tx
                0x08008e28       0x84 ./Third_Party/USB_Lib/otg/usb_dcd.o
                0x08008e28                DCD_EP_Tx
 .text.DCD_EP_Stall
                0x08008eac       0x84 ./Third_Party/USB_Lib/otg/usb_dcd.o
                0x08008eac                DCD_EP_Stall
 .text.DCD_EP_ClrStall
                0x08008f30       0x84 ./Third_Party/USB_Lib/otg/usb_dcd.o
                0x08008f30                DCD_EP_ClrStall
 .text.DCD_EP_SetAddress
                0x08008fb4       0x3c ./Third_Party/USB_Lib/otg/usb_dcd.o
                0x08008fb4                DCD_EP_SetAddress
 .text.USBD_OTG_ISR_Handler
                0x08008ff0      0x164 ./Third_Party/USB_Lib/otg/usb_dcd_int.o
                0x08008ff0                USBD_OTG_ISR_Handler
 .text.DCD_HandleResume_ISR
                0x08009154       0x88 ./Third_Party/USB_Lib/otg/usb_dcd_int.o
 .text.DCD_HandleUSBSuspend_ISR
                0x080091dc       0xa4 ./Third_Party/USB_Lib/otg/usb_dcd_int.o
 .text.DCD_HandleInEP_ISR
                0x08009280      0x22c ./Third_Party/USB_Lib/otg/usb_dcd_int.o
 .text.DCD_HandleOutEP_ISR
                0x080094ac      0x1a8 ./Third_Party/USB_Lib/otg/usb_dcd_int.o
 .text.DCD_HandleSof_ISR
                0x08009654       0x3c ./Third_Party/USB_Lib/otg/usb_dcd_int.o
 .text.DCD_HandleRxStatusQueueLevel_ISR
                0x08009690      0x114 ./Third_Party/USB_Lib/otg/usb_dcd_int.o
 .text.DCD_WriteEmptyTxFifo
                0x080097a4      0x100 ./Third_Party/USB_Lib/otg/usb_dcd_int.o
 .text.DCD_HandleUsbReset_ISR
                0x080098a4      0x16c ./Third_Party/USB_Lib/otg/usb_dcd_int.o
 .text.DCD_HandleEnumDone_ISR
                0x08009a10       0x88 ./Third_Party/USB_Lib/otg/usb_dcd_int.o
 .text.DCD_IsoINIncomplete_ISR
                0x08009a98       0x3c ./Third_Party/USB_Lib/otg/usb_dcd_int.o
 .text.DCD_IsoOUTIncomplete_ISR
                0x08009ad4       0x3c ./Third_Party/USB_Lib/otg/usb_dcd_int.o
 .text.DCD_ReadDevInEP
                0x08009b10       0x58 ./Third_Party/USB_Lib/otg/usb_dcd_int.o
 .text.USBD_Init
                0x08009b68       0x58 ./Third_Party/USB_Lib/core/usbd_core.o
                0x08009b68                USBD_Init
 .text.USBD_DeInit
                0x08009bc0       0x18 ./Third_Party/USB_Lib/core/usbd_core.o
                0x08009bc0                USBD_DeInit
 .text.USBD_SetupStage
                0x08009bd8       0x70 ./Third_Party/USB_Lib/core/usbd_core.o
 .text.USBD_DataOutStage
                0x08009c48       0xd4 ./Third_Party/USB_Lib/core/usbd_core.o
 .text.USBD_DataInStage
                0x08009d1c      0x114 ./Third_Party/USB_Lib/core/usbd_core.o
 .text.USBD_Reset
                0x08009e30       0x54 ./Third_Party/USB_Lib/core/usbd_core.o
 .text.USBD_Resume
                0x08009e84       0x2c ./Third_Party/USB_Lib/core/usbd_core.o
 .text.USBD_Suspend
                0x08009eb0       0x2c ./Third_Party/USB_Lib/core/usbd_core.o
 .text.USBD_SOF
                0x08009edc       0x30 ./Third_Party/USB_Lib/core/usbd_core.o
 .text.USBD_SetCfg
                0x08009f0c       0x34 ./Third_Party/USB_Lib/core/usbd_core.o
                0x08009f0c                USBD_SetCfg
 .text.USBD_ClrCfg
                0x08009f40       0x2c ./Third_Party/USB_Lib/core/usbd_core.o
                0x08009f40                USBD_ClrCfg
 .text.USBD_IsoINIncomplete
                0x08009f6c       0x24 ./Third_Party/USB_Lib/core/usbd_core.o
 .text.USBD_IsoOUTIncomplete
                0x08009f90       0x24 ./Third_Party/USB_Lib/core/usbd_core.o
 .text.USBD_CtlSendData
                0x08009fb4       0x48 ./Third_Party/USB_Lib/core/usbd_ioreq.o
                0x08009fb4                USBD_CtlSendData
 .text.USBD_CtlContinueSendData
                0x08009ffc       0x30 ./Third_Party/USB_Lib/core/usbd_ioreq.o
                0x08009ffc                USBD_CtlContinueSendData
 .text.USBD_CtlPrepareRx
                0x0800a02c       0x48 ./Third_Party/USB_Lib/core/usbd_ioreq.o
                0x0800a02c                USBD_CtlPrepareRx
 .text.USBD_CtlContinueRx
                0x0800a074       0x30 ./Third_Party/USB_Lib/core/usbd_ioreq.o
                0x0800a074                USBD_CtlContinueRx
 .text.USBD_CtlSendStatus
                0x0800a0a4       0x3c ./Third_Party/USB_Lib/core/usbd_ioreq.o
                0x0800a0a4                USBD_CtlSendStatus
 .text.USBD_CtlReceiveStatus
                0x0800a0e0       0x3c ./Third_Party/USB_Lib/core/usbd_ioreq.o
                0x0800a0e0                USBD_CtlReceiveStatus
 .text.USBD_StdDevReq
                0x0800a11c       0xa4 ./Third_Party/USB_Lib/core/usbd_req.o
                0x0800a11c                USBD_StdDevReq
 .text.USBD_StdItfReq
                0x0800a1c0       0x6c ./Third_Party/USB_Lib/core/usbd_req.o
                0x0800a1c0                USBD_StdItfReq
 .text.USBD_StdEPReq
                0x0800a22c      0x1c8 ./Third_Party/USB_Lib/core/usbd_req.o
                0x0800a22c                USBD_StdEPReq
 .text.USBD_GetDescriptor
                0x0800a3f4      0x1c8 ./Third_Party/USB_Lib/core/usbd_req.o
 .text.USBD_SetAddress
                0x0800a5bc       0x80 ./Third_Party/USB_Lib/core/usbd_req.o
 .text.USBD_SetConfig
                0x0800a63c       0xf8 ./Third_Party/USB_Lib/core/usbd_req.o
 .text.USBD_GetConfig
                0x0800a734       0x64 ./Third_Party/USB_Lib/core/usbd_req.o
 .text.USBD_GetStatus
                0x0800a798       0x58 ./Third_Party/USB_Lib/core/usbd_req.o
 .text.USBD_SetFeature
                0x0800a7f0       0xe0 ./Third_Party/USB_Lib/core/usbd_req.o
 .text.USBD_ClrFeature
                0x0800a8d0       0x58 ./Third_Party/USB_Lib/core/usbd_req.o
 .text.USBD_ParseSetupRequest
                0x0800a928       0x94 ./Third_Party/USB_Lib/core/usbd_req.o
                0x0800a928                USBD_ParseSetupRequest
 .text.USBD_CtlError
                0x0800a9bc       0x50 ./Third_Party/USB_Lib/core/usbd_req.o
                0x0800a9bc                USBD_CtlError
 .text.USBD_GetString
                0x0800aa0c       0x9c ./Third_Party/USB_Lib/core/usbd_req.o
                0x0800aa0c                USBD_GetString
 .text.USBD_GetLen
                0x0800aaa8       0x38 ./Third_Party/USB_Lib/core/usbd_req.o
 .text.usbd_cdc_Init
                0x0800aae0       0xac ./Third_Party/USB_Lib/cdc/usbd_cdc_core.o
 .text.usbd_cdc_DeInit
                0x0800ab8c       0x44 ./Third_Party/USB_Lib/cdc/usbd_cdc_core.o
 .text.usbd_cdc_Setup
                0x0800abd0      0x130 ./Third_Party/USB_Lib/cdc/usbd_cdc_core.o
 .text.usbd_cdc_EP0_RxReady
                0x0800ad00       0x48 ./Third_Party/USB_Lib/cdc/usbd_cdc_core.o
 .text.usbd_cdc_DataIn
                0x0800ad48       0xd0 ./Third_Party/USB_Lib/cdc/usbd_cdc_core.o
 .text.usbd_cdc_DataOut
                0x0800ae18       0x60 ./Third_Party/USB_Lib/cdc/usbd_cdc_core.o
 .text.usbd_cdc_SOF
                0x0800ae78       0x44 ./Third_Party/USB_Lib/cdc/usbd_cdc_core.o
 .text.Handle_USBAsynchXfer
                0x0800aebc      0x110 ./Third_Party/USB_Lib/cdc/usbd_cdc_core.o
 .text.USBD_cdc_GetCfgDesc
                0x0800afcc       0x28 ./Third_Party/USB_Lib/cdc/usbd_cdc_core.o
 .text.VCP_Init
                0x0800aff4       0x10 ./Third_Party/USB_Lib/cdc/usbd_cdc_vcp.o
 .text.VCP_DeInit
                0x0800b004       0x10 ./Third_Party/USB_Lib/cdc/usbd_cdc_vcp.o
 .text.VCP_Ctrl
                0x0800b014      0x124 ./Third_Party/USB_Lib/cdc/usbd_cdc_vcp.o
 .text.VCP_DataTx
                0x0800b138       0x68 ./Third_Party/USB_Lib/cdc/usbd_cdc_vcp.o
 .text.VCP_DataRx
                0x0800b1a0       0x7c ./Third_Party/USB_Lib/cdc/usbd_cdc_vcp.o
 .text.VCP_get_string
                0x0800b21c      0x118 ./Third_Party/USB_Lib/cdc/usbd_cdc_vcp.o
                0x0800b21c                VCP_get_string
 .text.pxPortInitialiseStack
                0x0800b334       0x70 ./Third_Party/FreeRTOS/portable/port.o
                0x0800b334                pxPortInitialiseStack
 .text.prvTaskExitError
                0x0800b3a4       0x20 ./Third_Party/FreeRTOS/portable/port.o
 .text.SVC_Handler
                0x0800b3c4       0x20 ./Third_Party/FreeRTOS/portable/port.o
                0x0800b3c4                SVC_Handler
 .text.prvPortStartFirstTask
                0x0800b3e4       0x1c ./Third_Party/FreeRTOS/portable/port.o
 .text.xPortStartScheduler
                0x0800b400       0xe0 ./Third_Party/FreeRTOS/portable/port.o
                0x0800b400                xPortStartScheduler
 .text.vPortYield
                0x0800b4e0       0x20 ./Third_Party/FreeRTOS/portable/port.o
                0x0800b4e0                vPortYield
 .text.vPortEnterCritical
                0x0800b500       0x24 ./Third_Party/FreeRTOS/portable/port.o
                0x0800b500                vPortEnterCritical
 .text.vPortExitCritical
                0x0800b524       0x34 ./Third_Party/FreeRTOS/portable/port.o
                0x0800b524                vPortExitCritical
 .text.ulPortSetInterruptMask
                0x0800b558       0x14 ./Third_Party/FreeRTOS/portable/port.o
                0x0800b558                ulPortSetInterruptMask
 .text.vPortClearInterruptMask
                0x0800b56c        0x8 ./Third_Party/FreeRTOS/portable/port.o
                0x0800b56c                vPortClearInterruptMask
 .text.PendSV_Handler
                0x0800b574       0x58 ./Third_Party/FreeRTOS/portable/port.o
                0x0800b574                PendSV_Handler
 .text.SysTick_Handler
                0x0800b5cc       0x28 ./Third_Party/FreeRTOS/portable/port.o
                0x0800b5cc                SysTick_Handler
 .text.vPortSetupTimerInterrupt
                0x0800b5f4       0x38 ./Third_Party/FreeRTOS/portable/port.o
                0x0800b5f4                vPortSetupTimerInterrupt
 .text.vPortEnableVFP
                0x0800b62c       0x14 ./Third_Party/FreeRTOS/portable/port.o
 .text.vPortValidateInterruptPriority
                0x0800b640       0x5c ./Third_Party/FreeRTOS/portable/port.o
                0x0800b640                vPortValidateInterruptPriority
 .text.pvPortMalloc
                0x0800b69c      0x130 ./Third_Party/FreeRTOS/heap_2.o
                0x0800b69c                pvPortMalloc
 .text.vPortFree
                0x0800b7cc       0x7c ./Third_Party/FreeRTOS/heap_2.o
                0x0800b7cc                vPortFree
 .text.prvHeapInit
                0x0800b848       0x54 ./Third_Party/FreeRTOS/heap_2.o
 .text.vListInitialise
                0x0800b89c       0x40 ./Third_Party/FreeRTOS/list.o
                0x0800b89c                vListInitialise
 .text.vListInitialiseItem
                0x0800b8dc       0x1c ./Third_Party/FreeRTOS/list.o
                0x0800b8dc                vListInitialiseItem
 .text.vListInsertEnd
                0x0800b8f8       0x48 ./Third_Party/FreeRTOS/list.o
                0x0800b8f8                vListInsertEnd
 .text.vListInsert
                0x0800b940       0x74 ./Third_Party/FreeRTOS/list.o
                0x0800b940                vListInsert
 .text.uxListRemove
                0x0800b9b4       0x58 ./Third_Party/FreeRTOS/list.o
                0x0800b9b4                uxListRemove
 .text.xQueueGenericReset
                0x0800ba0c       0xc0 ./Third_Party/FreeRTOS/queue.o
                0x0800ba0c                xQueueGenericReset
 .text.xQueueGenericCreate
                0x0800bacc       0x88 ./Third_Party/FreeRTOS/queue.o
                0x0800bacc                xQueueGenericCreate
 .text.xQueueGenericSend
                0x0800bb54      0x19c ./Third_Party/FreeRTOS/queue.o
                0x0800bb54                xQueueGenericSend
 .text.xQueueGenericSendFromISR
                0x0800bcf0       0xe8 ./Third_Party/FreeRTOS/queue.o
                0x0800bcf0                xQueueGenericSendFromISR
 .text.xQueueGenericReceive
                0x0800bdd8      0x1dc ./Third_Party/FreeRTOS/queue.o
                0x0800bdd8                xQueueGenericReceive
 .text.prvCopyDataToQueue
                0x0800bfb4       0xdc ./Third_Party/FreeRTOS/queue.o
 .text.prvCopyDataFromQueue
                0x0800c090       0x50 ./Third_Party/FreeRTOS/queue.o
 .text.prvUnlockQueue
                0x0800c0e0       0xa0 ./Third_Party/FreeRTOS/queue.o
 .text.prvIsQueueEmpty
                0x0800c180       0x34 ./Third_Party/FreeRTOS/queue.o
 .text.prvIsQueueFull
                0x0800c1b4       0x38 ./Third_Party/FreeRTOS/queue.o
 .text.vQueueAddToRegistry
                0x0800c1ec       0x54 ./Third_Party/FreeRTOS/queue.o
                0x0800c1ec                vQueueAddToRegistry
 .text.vQueueWaitForMessageRestricted
                0x0800c240       0x60 ./Third_Party/FreeRTOS/queue.o
                0x0800c240                vQueueWaitForMessageRestricted
 .text.xTaskGenericCreate
                0x0800c2a0      0x16c ./Third_Party/FreeRTOS/tasks.o
                0x0800c2a0                xTaskGenericCreate
 .text.vTaskDelay
                0x0800c40c       0x68 ./Third_Party/FreeRTOS/tasks.o
                0x0800c40c                vTaskDelay
 .text.vTaskSuspend
                0x0800c474       0xc0 ./Third_Party/FreeRTOS/tasks.o
                0x0800c474                vTaskSuspend
 .text.prvTaskIsTaskSuspended
                0x0800c534       0x70 ./Third_Party/FreeRTOS/tasks.o
 .text.vTaskResume
                0x0800c5a4       0xa4 ./Third_Party/FreeRTOS/tasks.o
                0x0800c5a4                vTaskResume
 .text.vTaskStartScheduler
                0x0800c648       0x80 ./Third_Party/FreeRTOS/tasks.o
                0x0800c648                vTaskStartScheduler
 .text.vTaskSuspendAll
                0x0800c6c8       0x1c ./Third_Party/FreeRTOS/tasks.o
                0x0800c6c8                vTaskSuspendAll
 .text.xTaskResumeAll
                0x0800c6e4      0x124 ./Third_Party/FreeRTOS/tasks.o
                0x0800c6e4                xTaskResumeAll
 .text.xTaskGetTickCount
                0x0800c808       0x24 ./Third_Party/FreeRTOS/tasks.o
                0x0800c808                xTaskGetTickCount
 .text.xTaskIncrementTick
                0x0800c82c      0x194 ./Third_Party/FreeRTOS/tasks.o
                0x0800c82c                xTaskIncrementTick
 .text.vTaskSwitchContext
                0x0800c9c0       0xb4 ./Third_Party/FreeRTOS/tasks.o
                0x0800c9c0                vTaskSwitchContext
 .text.vTaskPlaceOnEventList
                0x0800ca74       0x74 ./Third_Party/FreeRTOS/tasks.o
                0x0800ca74                vTaskPlaceOnEventList
 .text.vTaskPlaceOnEventListRestricted
                0x0800cae8       0x54 ./Third_Party/FreeRTOS/tasks.o
                0x0800cae8                vTaskPlaceOnEventListRestricted
 .text.xTaskRemoveFromEventList
                0x0800cb3c       0xcc ./Third_Party/FreeRTOS/tasks.o
                0x0800cb3c                xTaskRemoveFromEventList
 .text.vTaskSetTimeOutState
                0x0800cc08       0x34 ./Third_Party/FreeRTOS/tasks.o
                0x0800cc08                vTaskSetTimeOutState
 .text.xTaskCheckForTimeOut
                0x0800cc3c       0xac ./Third_Party/FreeRTOS/tasks.o
                0x0800cc3c                xTaskCheckForTimeOut
 .text.vTaskMissedYield
                0x0800cce8       0x18 ./Third_Party/FreeRTOS/tasks.o
                0x0800cce8                vTaskMissedYield
 .text.prvIdleTask
                0x0800cd00       0x24 ./Third_Party/FreeRTOS/tasks.o
 .text.prvInitialiseTCBVariables
                0x0800cd24       0xa0 ./Third_Party/FreeRTOS/tasks.o
 .text.prvInitialiseTaskLists
                0x0800cdc4       0x88 ./Third_Party/FreeRTOS/tasks.o
 .text.prvCheckTasksWaitingTermination
                0x0800ce4c       0x7c ./Third_Party/FreeRTOS/tasks.o
 .text.prvAddCurrentTaskToDelayedList
                0x0800cec8       0x70 ./Third_Party/FreeRTOS/tasks.o
 .text.prvAllocateTCBAndStack
                0x0800cf38       0x58 ./Third_Party/FreeRTOS/tasks.o
 .text.prvDeleteTCB
                0x0800cf90       0x20 ./Third_Party/FreeRTOS/tasks.o
 .text.prvResetNextTaskUnblockTime
                0x0800cfb0       0x4c ./Third_Party/FreeRTOS/tasks.o
 .text.xTaskGetCurrentTaskHandle
                0x0800cffc       0x20 ./Third_Party/FreeRTOS/tasks.o
                0x0800cffc                xTaskGetCurrentTaskHandle
 .text.xTaskGetSchedulerState
                0x0800d01c       0x44 ./Third_Party/FreeRTOS/tasks.o
                0x0800d01c                xTaskGetSchedulerState
 .text.vTaskPriorityInherit
                0x0800d060       0xcc ./Third_Party/FreeRTOS/tasks.o
                0x0800d060                vTaskPriorityInherit
 .text.vTaskPriorityDisinherit
                0x0800d12c       0x8c ./Third_Party/FreeRTOS/tasks.o
                0x0800d12c                vTaskPriorityDisinherit
 .text.xTimerCreateTimerTask
                0x0800d1b8       0x68 ./Third_Party/FreeRTOS/timers.o
                0x0800d1b8                xTimerCreateTimerTask
 .text.xTimerGenericCommand
                0x0800d220       0x98 ./Third_Party/FreeRTOS/timers.o
                0x0800d220                xTimerGenericCommand
 .text.prvProcessExpiredTimer
                0x0800d2b8       0x7c ./Third_Party/FreeRTOS/timers.o
 .text.prvTimerTask
                0x0800d334       0x24 ./Third_Party/FreeRTOS/timers.o
 .text.prvProcessTimerOrBlockTask
                0x0800d358       0x74 ./Third_Party/FreeRTOS/timers.o
 .text.prvGetNextExpireTime
                0x0800d3cc       0x4c ./Third_Party/FreeRTOS/timers.o
 .text.prvSampleTimeNow
                0x0800d418       0x44 ./Third_Party/FreeRTOS/timers.o
 .text.prvInsertTimerInActiveList
                0x0800d45c       0x90 ./Third_Party/FreeRTOS/timers.o
 .text.prvProcessReceivedCommands
                0x0800d4ec      0x124 ./Third_Party/FreeRTOS/timers.o
 .text.prvSwitchTimerLists
                0x0800d610       0xbc ./Third_Party/FreeRTOS/timers.o
 .text.prvCheckForValidListAndQueue
                0x0800d6cc       0x80 ./Third_Party/FreeRTOS/timers.o
 .text._ZN2HWC2Ev
                0x0800d74c       0xb8 ./Drivers/HW.o
                0x0800d74c                HW::HW()
                0x0800d74c                HW::HW()
 .text._ZN2HWD2Ev
                0x0800d804       0x48 ./Drivers/HW.o
                0x0800d804                HW::~HW()
                0x0800d804                HW::~HW()
 .text._ZN2HWD0Ev
                0x0800d84c       0x20 ./Drivers/HW.o
                0x0800d84c                HW::~HW()
 .text.__tcf_0  0x0800d86c       0x10 ./Drivers/HW.o
 .text._ZN2HW5getHWEv
                0x0800d87c       0x38 ./Drivers/HW.o
                0x0800d87c                HW::getHW()
 .text._Z8delay_usj
                0x0800d8b4       0x38 ./Drivers/LCD_4002.o
                0x0800d8b4                delay_us(unsigned int)
 .text._Z7delaymsj
                0x0800d8ec       0x3c ./Drivers/LCD_4002.o
                0x0800d8ec                delayms(unsigned int)
 .text._Z15LCD_WriteNibbleh
                0x0800d928       0x84 ./Drivers/LCD_4002.o
                0x0800d928                LCD_WriteNibble(unsigned char)
 .text._Z13LCD_WriteDatah
                0x0800d9ac       0x60 ./Drivers/LCD_4002.o
                0x0800d9ac                LCD_WriteData(unsigned char)
 .text._Z16LCD_WriteCommandh
                0x0800da0c       0x60 ./Drivers/LCD_4002.o
                0x0800da0c                LCD_WriteCommand(unsigned char)
 .text._Z21LCD_WriteShortCommandh
                0x0800da6c       0x3c ./Drivers/LCD_4002.o
                0x0800da6c                LCD_WriteShortCommand(unsigned char)
 .text._ZN4CLCD10LCD_StringEPKcc
                0x0800daa8       0x88 ./Drivers/LCD_4002.o
                0x0800daa8                CLCD::LCD_String(char const*, char)
 .text._ZN4CLCD9LCD_ClearEv
                0x0800db30       0x20 ./Drivers/LCD_4002.o
                0x0800db30                CLCD::LCD_Clear()
 .text._ZN4CLCDC2Ev
                0x0800db50       0x20 ./Drivers/LCD_4002.o
                0x0800db50                CLCD::CLCD()
                0x0800db50                CLCD::CLCD()
 .text._ZN4CLCDD2Ev
                0x0800db70       0x18 ./Drivers/LCD_4002.o
                0x0800db70                CLCD::~CLCD()
                0x0800db70                CLCD::~CLCD()
 .text._ZN4CLCD4InitEh
                0x0800db88       0xb8 ./Drivers/LCD_4002.o
                0x0800db88                CLCD::Init(unsigned char)
 .text._ZN11SerialRS232C2Ev
                0x0800dc40       0x20 ./Drivers/SerialRS232.o
                0x0800dc40                SerialRS232::SerialRS232()
                0x0800dc40                SerialRS232::SerialRS232()
 .text._ZN11SerialRS2324InitEmmP12GPIO_TypeDefP13USART_TypeDef
                0x0800dc60       0xe0 ./Drivers/SerialRS232.o
                0x0800dc60                SerialRS232::Init(unsigned long, unsigned long, GPIO_TypeDef*, USART_TypeDef*)
 .text._ZN11SerialRS232D2Ev
                0x0800dd40       0x18 ./Drivers/SerialRS232.o
                0x0800dd40                SerialRS232::~SerialRS232()
                0x0800dd40                SerialRS232::~SerialRS232()
 .text._ZN11SerialRS23216EnableUARTDeviceEv
                0x0800dd58       0xbc ./Drivers/SerialRS232.o
                0x0800dd58                SerialRS232::EnableUARTDevice()
 .text._ZL11NVIC_Configv
                0x0800de14       0x30 ./Drivers/SerialRS232.o
 .text.STM_EVAL_LEDInit
                0x0800de44       0x68 ./Drivers/stm32f4_discovery.o
                0x0800de44                STM_EVAL_LEDInit
 .text.STM_EVAL_LEDOn
                0x0800deac       0x30 ./Drivers/stm32f4_discovery.o
                0x0800deac                STM_EVAL_LEDOn
 .text.STM_EVAL_LEDOff
                0x0800dedc       0x30 ./Drivers/stm32f4_discovery.o
                0x0800dedc                STM_EVAL_LEDOff
 .text.STM_EVAL_PBInit
                0x0800df0c       0xe0 ./Drivers/stm32f4_discovery.o
                0x0800df0c                STM_EVAL_PBInit
 .text._ZN5Queue4sendEPv
                0x0800dfec       0x34 ./Applications/CMainHandler.o
                0x0800dfec                Queue::send(void*)
 .text.pvMAINaskCode
                0x0800e020       0x18 ./Applications/CMainHandler.o
                0x0800e020                pvMAINaskCode
 .text._ZN12CMainHandlerC2EPKctc
                0x0800e038       0x5c ./Applications/CMainHandler.o
                0x0800e038                CMainHandler::CMainHandler(char const*, unsigned short, char)
                0x0800e038                CMainHandler::CMainHandler(char const*, unsigned short, char)
 .text._ZN12CMainHandlerD2Ev
                0x0800e094       0x3c ./Applications/CMainHandler.o
                0x0800e094                CMainHandler::~CMainHandler()
                0x0800e094                CMainHandler::~CMainHandler()
 .text._ZN12CMainHandlerD0Ev
                0x0800e0d0       0x20 ./Applications/CMainHandler.o
                0x0800e0d0                CMainHandler::~CMainHandler()
 .text._ZN12CMainHandler3runEv
                0x0800e0f0      0x138 ./Applications/CMainHandler.o
                0x0800e0f0                CMainHandler::run()
 .text._ZN5Queue7receiveEPv
                0x0800e228       0x34 ./Applications/CSerialHandler.o
                0x0800e228                Queue::receive(void*)
 .text.pvSerialTaskCode
                0x0800e25c       0x18 ./Applications/CSerialHandler.o
                0x0800e25c                pvSerialTaskCode
 .text._ZN14CSerialHandlerC2EPKctcRPv
                0x0800e274       0x58 ./Applications/CSerialHandler.o
                0x0800e274                CSerialHandler::CSerialHandler(char const*, unsigned short, char, void*&)
                0x0800e274                CSerialHandler::CSerialHandler(char const*, unsigned short, char, void*&)
 .text._ZN14CSerialHandlerD2Ev
                0x0800e2cc       0x30 ./Applications/CSerialHandler.o
                0x0800e2cc                CSerialHandler::~CSerialHandler()
                0x0800e2cc                CSerialHandler::~CSerialHandler()
 .text._ZN14CSerialHandlerD0Ev
                0x0800e2fc       0x20 ./Applications/CSerialHandler.o
                0x0800e2fc                CSerialHandler::~CSerialHandler()
 .text._ZN14CSerialHandler3runEv
                0x0800e31c       0xe4 ./Applications/CSerialHandler.o
                0x0800e31c                CSerialHandler::run()
 .text._ZN12ClassMessageC2Ev
                0x0800e400       0x7c ./Applications/ClassMessage.o
                0x0800e400                ClassMessage::ClassMessage()
                0x0800e400                ClassMessage::ClassMessage()
 .text._ZN12ClassMessageD2Ev
                0x0800e47c       0x30 ./Applications/ClassMessage.o
                0x0800e47c                ClassMessage::~ClassMessage()
                0x0800e47c                ClassMessage::~ClassMessage()
 .text._ZN12ClassMessageD0Ev
                0x0800e4ac       0x20 ./Applications/ClassMessage.o
                0x0800e4ac                ClassMessage::~ClassMessage()
 .text._ZN12ClassMessage10getMessageEPhPs
                0x0800e4cc      0x134 ./Applications/ClassMessage.o
                0x0800e4cc                ClassMessage::getMessage(unsigned char*, short*)
 .text._ZL9calcCRC16Phs
                0x0800e600       0x70 ./Applications/ClassMessage.o
 .text.getPackage
                0x0800e670       0x80 ./Applications/ClassMessage.o
                0x0800e670                getPackage
 .text._Z41__static_initialization_and_destruction_0ii
                0x0800e6f0       0x30 ./Applications/ClassMessage.o
 .text._GLOBAL__sub_I_ptrToQueuex
                0x0800e720       0x14 ./Applications/ClassMessage.o
 .text.pvLCDTaskCode
                0x0800e734       0x18 ./Applications/LCDHandler.o
                0x0800e734                pvLCDTaskCode
 .text._ZN10LCDHandlerC2EPKctc
                0x0800e74c       0x44 ./Applications/LCDHandler.o
                0x0800e74c                LCDHandler::LCDHandler(char const*, unsigned short, char)
                0x0800e74c                LCDHandler::LCDHandler(char const*, unsigned short, char)
 .text._ZN10LCDHandler3runEv
                0x0800e790      0x144 ./Applications/LCDHandler.o
                0x0800e790                LCDHandler::run()
 .text._ZN5Queue6CreateEhj
                0x0800e8d4       0x2c ./Applications/QueueBox.o
                0x0800e8d4                Queue::Create(unsigned char, unsigned int)
 .text._ZN5QueueC2Ev
                0x0800e900       0x20 ./Applications/QueueBox.o
                0x0800e900                Queue::Queue()
                0x0800e900                Queue::Queue()
 .text._ZN8QueueBoxC2Ev
                0x0800e920       0x60 ./Applications/QueueBox.o
                0x0800e920                QueueBox::QueueBox()
                0x0800e920                QueueBox::QueueBox()
 .text._ZN8QueueBoxD2Ev
                0x0800e980       0x30 ./Applications/QueueBox.o
                0x0800e980                QueueBox::~QueueBox()
                0x0800e980                QueueBox::~QueueBox()
 .text._ZN8QueueBoxD0Ev
                0x0800e9b0       0x20 ./Applications/QueueBox.o
                0x0800e9b0                QueueBox::~QueueBox()
 .text.__tcf_0  0x0800e9d0       0x10 ./Applications/QueueBox.o
 .text._ZN8QueueBox9getIQueueEv
                0x0800e9e0       0x38 ./Applications/QueueBox.o
                0x0800e9e0                QueueBox::getIQueue()
 .text.setRawPackage
                0x0800ea18       0x28 ./Applications/rawMessageHandler.o
                0x0800ea18                setRawPackage
 .text.getRawByte
                0x0800ea40       0x28 ./Applications/rawMessageHandler.o
                0x0800ea40                getRawByte
 .text._ZdlPv   0x0800ea68        0x8 /opt/codesourcery/arm-2012.09/bin/../lib/gcc/arm-none-eabi/4.7.2/../../../../arm-none-eabi/lib/thumb2/libstdc++.a(del_op.o)
                0x0800ea68                operator delete(void*)
 *(.rodata)
 .rodata        0x0800ea70       0x10 ./src/main.o
 .rodata        0x0800ea80       0x90 ./config/usb_config/usbd_desc.o
 .rodata        0x0800eb10       0x3c ./Third_Party/fat_fs/src/ff.o
 .rodata        0x0800eb4c        0x8 ./Third_Party/FreeRTOS/tasks.o
 .rodata        0x0800eb54       0x10 ./Third_Party/FreeRTOS/timers.o
 .rodata        0x0800eb64       0x48 ./Applications/CMainHandler.o
 .rodata        0x0800ebac       0x14 ./Applications/ClassMessage.o
 .rodata        0x0800ebc0        0x4 /opt/codesourcery/arm-2012.09/bin/../lib/gcc/arm-none-eabi/4.7.2/../../../../arm-none-eabi/lib/thumb2/libc.a(lib_a-impure.o)
                0x0800ebc0                _global_impure_ptr
 .rodata        0x0800ebc4      0x104 /opt/codesourcery/arm-2012.09/bin/../lib/gcc/arm-none-eabi/4.7.2/../../../../arm-none-eabi/lib/thumb2/libc.a(lib_a-ctype_.o)
                0x0800ebc4                _ctype_
 *(.rodata*)
 .rodata.Tbl    0x0800ecc8      0x100 ./Third_Party/fat_fs/src/option/ccsbcs.o
 .rodata.tbl_lower.5622
                0x0800edc8      0x1e0 ./Third_Party/fat_fs/src/option/ccsbcs.o
 .rodata.tbl_upper.5623
                0x0800efa8      0x1e0 ./Third_Party/fat_fs/src/option/ccsbcs.o
 .rodata.LfnOfs
                0x0800f188       0x10 ./Third_Party/fat_fs/src/ff.o
 .rodata.cvt.5873
                0x0800f198       0x80 ./Third_Party/fat_fs/src/ff.o
 .rodata.pcInterruptPriorityRegisters
                0x0800f218        0x4 ./Third_Party/FreeRTOS/portable/port.o
 .rodata.heapSTRUCT_SIZE
                0x0800f21c        0x2 ./Third_Party/FreeRTOS/heap_2.o
 *fill*         0x0800f21e        0x2 
 .rodata._ZTV2HW
                0x0800f220       0x10 ./Drivers/HW.o
                0x0800f220                vtable for HW
 .rodata.GPIO_PIN
                0x0800f230        0x8 ./Drivers/stm32f4_discovery.o
                0x0800f230                GPIO_PIN
 .rodata.GPIO_CLK
                0x0800f238        0xc ./Drivers/stm32f4_discovery.o
                0x0800f238                GPIO_CLK
 .rodata.BUTTON_PIN
                0x0800f244        0x4 ./Drivers/stm32f4_discovery.o
                0x0800f244                BUTTON_PIN
 .rodata.BUTTON_CLK
                0x0800f248        0x4 ./Drivers/stm32f4_discovery.o
                0x0800f248                BUTTON_CLK
 .rodata.BUTTON_EXTI_LINE
                0x0800f24c        0x4 ./Drivers/stm32f4_discovery.o
                0x0800f24c                BUTTON_EXTI_LINE
 .rodata.BUTTON_PORT_SOURCE
                0x0800f250        0x4 ./Drivers/stm32f4_discovery.o
                0x0800f250                BUTTON_PORT_SOURCE
 .rodata.BUTTON_PIN_SOURCE
                0x0800f254        0x4 ./Drivers/stm32f4_discovery.o
                0x0800f254                BUTTON_PIN_SOURCE
 .rodata.BUTTON_IRQn
                0x0800f258        0x4 ./Drivers/stm32f4_discovery.o
                0x0800f258                BUTTON_IRQn
 *fill*         0x0800f25c        0x4 
 .rodata._ZTV12CMainHandler
                0x0800f260       0x10 ./Applications/CMainHandler.o
                0x0800f260                vtable for CMainHandler
 .rodata._ZTV14CSerialHandler
                0x0800f270       0x10 ./Applications/CSerialHandler.o
                0x0800f270                vtable for CSerialHandler
 .rodata._ZL14ActivationWord
                0x0800f280        0x8 ./Applications/CSerialHandler.o
 .rodata._ZTV12ClassMessage
                0x0800f288       0x10 ./Applications/ClassMessage.o
                0x0800f288                vtable for ClassMessage
 .rodata._ZL10crc16table
                0x0800f298      0x400 ./Applications/ClassMessage.o
 .rodata._ZTV8QueueBox
                0x0800f698       0x10 ./Applications/QueueBox.o
                0x0800f698                vtable for QueueBox
 .rodata.str1.4
                0x0800f6a8        0x4 /opt/codesourcery/arm-2012.09/bin/../lib/gcc/arm-none-eabi/4.7.2/../../../../arm-none-eabi/lib/thumb2/libc.a(lib_a-impure.o)
 *(.glue_7)
 .glue_7        0x00000000        0x0 linker stubs
 *(.glue_7t)
 .glue_7t       0x00000000        0x0 linker stubs
 *(.eh_frame)
 *(.init)
 *(.fini)
                0x0800f6ac                . = ALIGN (0x4)
                0x0800f6ac                _etext = .
                0x0800f6ac                _exit = .

.vfp11_veneer   0x0800f6ac        0x0
 .vfp11_veneer  0x00000000        0x0 linker stubs

.v4_bx          0x0800f6ac        0x0
 .v4_bx         0x00000000        0x0 linker stubs

.iplt           0x0800f6ac        0x0
 .iplt          0x00000000        0x0 ./unit_test/SDTest.o

.ARM.extab
 *(.ARM.extab* .gnu.linkonce.armextab.*)

.ARM            0x0800f6ac        0x8
                0x0800f6ac                __exidx_start = .
 *(.ARM.exidx*)
 .ARM.exidx.text._ZdlPv
                0x0800f6ac        0x8 /opt/codesourcery/arm-2012.09/bin/../lib/gcc/arm-none-eabi/4.7.2/../../../../arm-none-eabi/lib/thumb2/libstdc++.a(del_op.o)
                0x0800f6b4                __exidx_end = .

.rel.dyn        0x0800f6b4        0x0
 .rel.iplt      0x00000000        0x0 ./unit_test/SDTest.o

.preinit_array  0x0800f6b4        0x0
                0x0800f6b4                PROVIDE (__preinit_array_start, .)
 *(.preinit_array*)
                0x0800f6b4                PROVIDE (__preinit_array_end, .)

.init_array     0x0800f6b4        0x4
                0x0800f6b4                PROVIDE (__init_array_start, .)
 *(SORT(.init_array.*))
 *(.init_array*)
 .init_array    0x0800f6b4        0x4 ./Applications/ClassMessage.o
                0x0800f6b8                PROVIDE (__init_array_end, .)

.fini_array     0x0800f6b8        0x0
                0x0800f6b8                PROVIDE (__fini_array_start, .)
 *(.fini_array*)
 *(SORT(.fini_array.*))
                0x0800f6b8                PROVIDE (__fini_array_end, .)
                0x0800f6b8                _sidata = .

.data           0x20000000      0x648 load address 0x0800f6b8
                0x20000000                . = ALIGN (0x4)
                0x20000000                _sdata = .
 *(.data)
 .data          0x20000000       0xf4 /opt/codesourcery/arm-2012.09/bin/../lib/gcc/arm-none-eabi/4.7.2/../../../../arm-none-eabi/lib/thumb2/libc.a(lib_a-impure.o)
                0x20000000                _impure_ptr
 .data          0x200000f4      0x410 /opt/codesourcery/arm-2012.09/bin/../lib/gcc/arm-none-eabi/4.7.2/../../../../arm-none-eabi/lib/thumb2/libc.a(lib_a-mallocr.o)
                0x200000f4                __malloc_av_
                0x200004fc                __malloc_sbrk_base
                0x20000500                __malloc_trim_threshold
 .data          0x20000504        0x4 /opt/codesourcery/arm-2012.09/bin/../lib/gcc/arm-none-eabi/4.7.2/../../../../arm-none-eabi/lib/thumb2/libc.a(lib_a-ctype_.o)
                0x20000504                __ctype_ptr__
 *(.data*)
 .data.APBAHBPrescTable
                0x20000508       0x10 ./system/STM32F4xx_StdPeriph_Driver/src/stm32f4xx_rcc.o
 .data.SystemCoreClock
                0x20000518        0x4 ./system/CMSIS/stm32/system_stm32f4xx.o
                0x20000518                SystemCoreClock
 .data.USR_desc
                0x2000051c       0x1c ./config/usb_config/usbd_desc.o
                0x2000051c                USR_desc
 .data.USBD_DeviceDesc
                0x20000538       0x14 ./config/usb_config/usbd_desc.o
                0x20000538                USBD_DeviceDesc
 .data.USBD_LangIDDesc
                0x2000054c        0x4 ./config/usb_config/usbd_desc.o
                0x2000054c                USBD_LangIDDesc
 .data.USR_cb   0x20000550       0x1c ./config/usb_config/usbd_usr.o
                0x20000550                USR_cb
 .data.USBD_DCD_INT_cb
                0x2000056c       0x2c ./Third_Party/USB_Lib/core/usbd_core.o
                0x2000056c                USBD_DCD_INT_cb
 .data.USBD_DCD_INT_fops
                0x20000598        0x4 ./Third_Party/USB_Lib/core/usbd_core.o
                0x20000598                USBD_DCD_INT_fops
 .data.usbd_cdc_CfgDesc
                0x2000059c       0x44 ./Third_Party/USB_Lib/cdc/usbd_cdc_core.o
                0x2000059c                usbd_cdc_CfgDesc
 .data.cdcCmd   0x200005e0        0x4 ./Third_Party/USB_Lib/cdc/usbd_cdc_core.o
 .data.USBD_CDC_cb
                0x200005e4       0x2c ./Third_Party/USB_Lib/cdc/usbd_cdc_core.o
                0x200005e4                USBD_CDC_cb
 .data.linecoding
                0x20000610        0x8 ./Third_Party/USB_Lib/cdc/usbd_cdc_vcp.o
                0x20000610                linecoding
 .data.VCP_fops
                0x20000618       0x14 ./Third_Party/USB_Lib/cdc/usbd_cdc_vcp.o
                0x20000618                VCP_fops
 .data.uxCriticalNesting
                0x2000062c        0x4 ./Third_Party/FreeRTOS/portable/port.o
 .data.xFreeBytesRemaining
                0x20000630        0x4 ./Third_Party/FreeRTOS/heap_2.o
 .data.xNextTaskUnblockTime
                0x20000634        0x4 ./Third_Party/FreeRTOS/tasks.o
 .data.GPIO_PORT
                0x20000638        0xc ./Drivers/stm32f4_discovery.o
                0x20000638                GPIO_PORT
 .data.BUTTON_PORT
                0x20000644        0x4 ./Drivers/stm32f4_discovery.o
                0x20000644                BUTTON_PORT
                0x20000648                . = ALIGN (0x4)
                0x20000648                _edata = .

.igot.plt       0x20000648        0x0 load address 0x0800fd00
 .igot.plt      0x00000000        0x0 ./unit_test/SDTest.o
                0x20000648                . = ALIGN (0x4)

.bss            0x20000648    0x1457c load address 0x0800fd00
                0x20000648                _sbss = .
                0x20000648                __bss_start__ = _sbss
 *(.bss)
 .bss           0x20000648       0x34 /opt/codesourcery/arm-2012.09/bin/../lib/gcc/arm-none-eabi/4.7.2/../../../../arm-none-eabi/lib/thumb2/libc.a(lib_a-mallocr.o)
                0x20000648                __malloc_top_pad
                0x2000064c                __malloc_current_mallinfo
                0x20000674                __malloc_max_sbrked_mem
                0x20000678                __malloc_max_total_mem
 *(.bss*)
 .bss.heap_end.4990
                0x2000067c        0x4 ./system/syscalls.o
 .bss.bff_      0x20000680      0x100 ./src/stm32f4xx_it.o
 .bss.count.8696
                0x20000780        0x1 ./src/stm32f4xx_it.o
 .bss.isSdPresent
                0x20000781        0x1 ./Third_Party/fat_fs/src/diskio.o
 *fill*         0x20000782        0x2 
 .bss.FatFs     0x20000784        0x4 ./Third_Party/fat_fs/src/ff.o
 .bss.Fsid      0x20000788        0x2 ./Third_Party/fat_fs/src/ff.o
 *fill*         0x2000078a        0x2 
 .bss.LfnBuf    0x2000078c      0x200 ./Third_Party/fat_fs/src/ff.o
 .bss.CardType  0x2000098c        0x4 ./Third_Party/fat_fs/src/sdio_sd.o
 .bss.CSD_Tab   0x20000990       0x10 ./Third_Party/fat_fs/src/sdio_sd.o
 .bss.CID_Tab   0x200009a0       0x10 ./Third_Party/fat_fs/src/sdio_sd.o
 .bss.RCA       0x200009b0        0x4 ./Third_Party/fat_fs/src/sdio_sd.o
 .bss.StopCondition
                0x200009b4        0x4 ./Third_Party/fat_fs/src/sdio_sd.o
                0x200009b4                StopCondition
 .bss.TransferError
                0x200009b8        0x1 ./Third_Party/fat_fs/src/sdio_sd.o
                0x200009b8                TransferError
 *fill*         0x200009b9        0x3 
 .bss.TransferEnd
                0x200009bc        0x4 ./Third_Party/fat_fs/src/sdio_sd.o
                0x200009bc                TransferEnd
 .bss.DMAEndOfTransfer
                0x200009c0        0x4 ./Third_Party/fat_fs/src/sdio_sd.o
                0x200009c0                DMAEndOfTransfer
 .bss.USBD_ep_status
                0x200009c4        0x4 ./Third_Party/USB_Lib/core/usbd_req.o
                0x200009c4                USBD_ep_status
 .bss.USBD_default_cfg
                0x200009c8        0x4 ./Third_Party/USB_Lib/core/usbd_req.o
                0x200009c8                USBD_default_cfg
 .bss.USBD_cfg_status
                0x200009cc        0x4 ./Third_Party/USB_Lib/core/usbd_req.o
                0x200009cc                USBD_cfg_status
 .bss.cfgidx.6622
                0x200009d0        0x1 ./Third_Party/USB_Lib/core/usbd_req.o
 *fill*         0x200009d1        0x3 
 .bss.usbd_cdc_AltSet
                0x200009d4        0x4 ./Third_Party/USB_Lib/cdc/usbd_cdc_core.o
 .bss.APP_Rx_ptr_in
                0x200009d8        0x4 ./Third_Party/USB_Lib/cdc/usbd_cdc_core.o
                0x200009d8                APP_Rx_ptr_in
 .bss.APP_Rx_ptr_out
                0x200009dc        0x4 ./Third_Party/USB_Lib/cdc/usbd_cdc_core.o
                0x200009dc                APP_Rx_ptr_out
 .bss.APP_Rx_length
                0x200009e0        0x4 ./Third_Party/USB_Lib/cdc/usbd_cdc_core.o
                0x200009e0                APP_Rx_length
 .bss.USB_Tx_State
                0x200009e4        0x1 ./Third_Party/USB_Lib/cdc/usbd_cdc_core.o
                0x200009e4                USB_Tx_State
 *fill*         0x200009e5        0x3 
 .bss.cdcLen    0x200009e8        0x4 ./Third_Party/USB_Lib/cdc/usbd_cdc_core.o
 .bss.FrameCount.6616
                0x200009ec        0x4 ./Third_Party/USB_Lib/cdc/usbd_cdc_core.o
 .bss.ucMaxSysCallPriority
                0x200009f0        0x1 ./Third_Party/FreeRTOS/portable/port.o
 *fill*         0x200009f1        0x3 
 .bss.ulMaxPRIGROUPValue
                0x200009f4        0x4 ./Third_Party/FreeRTOS/portable/port.o
 .bss.ucHeap    0x200009f8    0x12c00 ./Third_Party/FreeRTOS/heap_2.o
 .bss.xStart    0x200135f8        0x8 ./Third_Party/FreeRTOS/heap_2.o
 .bss.xEnd      0x20013600        0x8 ./Third_Party/FreeRTOS/heap_2.o
 .bss.xHeapHasBeenInitialised.4912
                0x20013608        0x4 ./Third_Party/FreeRTOS/heap_2.o
 .bss.pxCurrentTCB
                0x2001360c        0x4 ./Third_Party/FreeRTOS/tasks.o
                0x2001360c                pxCurrentTCB
 .bss.pxReadyTasksLists
                0x20013610       0x64 ./Third_Party/FreeRTOS/tasks.o
 .bss.xDelayedTaskList1
                0x20013674       0x14 ./Third_Party/FreeRTOS/tasks.o
 .bss.xDelayedTaskList2
                0x20013688       0x14 ./Third_Party/FreeRTOS/tasks.o
 .bss.pxDelayedTaskList
                0x2001369c        0x4 ./Third_Party/FreeRTOS/tasks.o
 .bss.pxOverflowDelayedTaskList
                0x200136a0        0x4 ./Third_Party/FreeRTOS/tasks.o
 .bss.xPendingReadyList
                0x200136a4       0x14 ./Third_Party/FreeRTOS/tasks.o
 .bss.xTasksWaitingTermination
                0x200136b8       0x14 ./Third_Party/FreeRTOS/tasks.o
 .bss.uxTasksDeleted
                0x200136cc        0x4 ./Third_Party/FreeRTOS/tasks.o
 .bss.xSuspendedTaskList
                0x200136d0       0x14 ./Third_Party/FreeRTOS/tasks.o
 .bss.uxCurrentNumberOfTasks
                0x200136e4        0x4 ./Third_Party/FreeRTOS/tasks.o
 .bss.xTickCount
                0x200136e8        0x4 ./Third_Party/FreeRTOS/tasks.o
 .bss.uxTopReadyPriority
                0x200136ec        0x4 ./Third_Party/FreeRTOS/tasks.o
 .bss.xSchedulerRunning
                0x200136f0        0x4 ./Third_Party/FreeRTOS/tasks.o
 .bss.uxPendedTicks
                0x200136f4        0x4 ./Third_Party/FreeRTOS/tasks.o
 .bss.xYieldPending
                0x200136f8        0x4 ./Third_Party/FreeRTOS/tasks.o
 .bss.xNumOfOverflows
                0x200136fc        0x4 ./Third_Party/FreeRTOS/tasks.o
 .bss.uxTaskNumber
                0x20013700        0x4 ./Third_Party/FreeRTOS/tasks.o
 .bss.uxSchedulerSuspended
                0x20013704        0x4 ./Third_Party/FreeRTOS/tasks.o
 .bss.xActiveTimerList1
                0x20013708       0x14 ./Third_Party/FreeRTOS/timers.o
 .bss.xActiveTimerList2
                0x2001371c       0x14 ./Third_Party/FreeRTOS/timers.o
 .bss.pxCurrentTimerList
                0x20013730        0x4 ./Third_Party/FreeRTOS/timers.o
 .bss.pxOverflowTimerList
                0x20013734        0x4 ./Third_Party/FreeRTOS/timers.o
 .bss.xTimerQueue
                0x20013738        0x4 ./Third_Party/FreeRTOS/timers.o
 .bss.xLastTime.5149
                0x2001373c        0x4 ./Third_Party/FreeRTOS/timers.o
 .bss._ZGVZN2HW5getHWEvE11SinleObgect
                0x20013740        0x4 ./Drivers/HW.o
 .bss._ZZN2HW5getHWEvE11SinleObgect
                0x20013744        0xc ./Drivers/HW.o
 .bss.FatFs     0x20013750      0x430 ./Applications/CMainHandler.o
                0x20013750                FatFs
 .bss.ptrToQueuex
                0x20013b80        0x4 ./Applications/ClassMessage.o
                0x20013b80                ptrToQueuex
 .bss._ZGVZN8QueueBox9getIQueueEvE8InstaceQ
                0x20013b84        0x4 ./Applications/QueueBox.o
 .bss._ZZN8QueueBox9getIQueueEvE8InstaceQ
                0x20013b88        0xc ./Applications/QueueBox.o
 *(COMMON)
 COMMON         0x20013b94      0x5f0 ./src/stm32f4xx_it.o
                0x20013b94                USB_OTG_dev
 *fill*         0x20014184        0x4 
 COMMON         0x20014188       0xa0 ./Third_Party/fat_fs/src/sdio_sd.o
                0x20014188                SDIO_CmdInitStructure
                0x200141a0                SDCardInfo
                0x200141f8                SDIO_InitStructure
                0x20014210                SDIO_DataInitStructure
 COMMON         0x20014228       0x32 ./Third_Party/USB_Lib/core/usbd_req.o
                0x20014228                USBD_StrDesc
 *fill*         0x2001425a        0x2 
 COMMON         0x2001425c      0x88c ./Third_Party/USB_Lib/cdc/usbd_cdc_core.o
                0x2001425c                usbd_cdc_OtherCfgDesc
                0x200142a0                USB_Rx_Buffer
                0x200142e0                CmdBuff
                0x200142e8                APP_Rx_Buffer
 COMMON         0x20014ae8       0x98 ./Third_Party/USB_Lib/cdc/usbd_cdc_vcp.o
                0x20014ae8                APP_Tx_Buffer
                0x20014b68                APP_tx_ptr_tail
                0x20014b6c                USART_InitStructure
                0x20014b7c                APP_tx_ptr_head
 COMMON         0x20014b80       0x40 ./Third_Party/FreeRTOS/queue.o
                0x20014b80                xQueueRegistry
 COMMON         0x20014bc0        0x4 ./Applications/rawMessageHandler.o
                0x20014bc0                funcx
                0x20014bc4                . = ALIGN (0x4)
                0x20014bc4                _ebss = .
                0x20014bc4                __bss_end__ = _ebss

._user_heap_stack
                0x20014bc4      0x400 load address 0x0802427c
                0x20014bc4                . = ALIGN (0x4)
                0x20014bc4                PROVIDE (end, .)
                0x20014bc4                PROVIDE (_end, .)
                0x20014bc4                . = (. + _Min_Heap_Size)
                0x20014fc4                . = (. + _Min_Stack_Size)
 *fill*         0x20014bc4      0x400 
                0x20014fc4                . = ALIGN (0x4)
OUTPUT(stm32f4.elf elf32-littlearm)

.debug_info     0x00000000    0x1d9c6
 .debug_info    0x00000000      0x596 ./system/STM32F4xx_StdPeriph_Driver/src/misc.o
 .debug_info    0x00000596      0x7b3 ./system/STM32F4xx_StdPeriph_Driver/src/stm32f4xx_dma.o
 .debug_info    0x00000d49      0x368 ./system/STM32F4xx_StdPeriph_Driver/src/stm32f4xx_exti.o
 .debug_info    0x000010b1      0x647 ./system/STM32F4xx_StdPeriph_Driver/src/stm32f4xx_gpio.o
 .debug_info    0x000016f8      0xf30 ./system/STM32F4xx_StdPeriph_Driver/src/stm32f4xx_rcc.o
 .debug_info    0x00002628      0x8bf ./system/STM32F4xx_StdPeriph_Driver/src/stm32f4xx_sdio.o
 .debug_info    0x00002ee7      0x2a6 ./system/STM32F4xx_StdPeriph_Driver/src/stm32f4xx_syscfg.o
 .debug_info    0x0000318d      0xa69 ./system/STM32F4xx_StdPeriph_Driver/src/stm32f4xx_usart.o
 .debug_info    0x00003bf6       0x80 ./system/CMSIS/stm32/startup_stm32f40xx.o
 .debug_info    0x00003c76      0x628 ./system/CMSIS/stm32/system_stm32f4xx.o
 .debug_info    0x0000429e     0x11fc ./system/syscalls.o
 .debug_info    0x0000549a       0xf2 ./src/main.o
 .debug_info    0x0000558c      0xea2 ./src/stm32f4xx_it.o
 .debug_info    0x0000642e     0x1204 ./config/usb_config/usb_bsp.o
 .debug_info    0x00007632      0x384 ./config/usb_config/usbd_desc.o
 .debug_info    0x000079b6      0x1f3 ./config/usb_config/usbd_usr.o
 .debug_info    0x00007ba9      0x1a5 ./Third_Party/fat_fs/src/option/ccsbcs.o
 .debug_info    0x00007d4e      0x764 ./Third_Party/fat_fs/src/diskio.o
 .debug_info    0x000084b2       0xc1 ./Third_Party/fat_fs/src/fattime.o
 .debug_info    0x00008573     0x1f8a ./Third_Party/fat_fs/src/ff.o
 .debug_info    0x0000a4fd     0x1ea3 ./Third_Party/fat_fs/src/sdio_sd.o
 .debug_info    0x0000c3a0     0x281d ./Third_Party/USB_Lib/otg/usb_core.o
 .debug_info    0x0000ebbd     0x1190 ./Third_Party/USB_Lib/otg/usb_dcd.o
 .debug_info    0x0000fd4d     0x200b ./Third_Party/USB_Lib/otg/usb_dcd_int.o
 .debug_info    0x00011d58      0xff5 ./Third_Party/USB_Lib/core/usbd_core.o
 .debug_info    0x00012d4d      0xde8 ./Third_Party/USB_Lib/core/usbd_ioreq.o
 .debug_info    0x00013b35     0x10ff ./Third_Party/USB_Lib/core/usbd_req.o
 .debug_info    0x00014c34     0x103f ./Third_Party/USB_Lib/cdc/usbd_cdc_core.o
 .debug_info    0x00015c73      0x4e9 ./Third_Party/USB_Lib/cdc/usbd_cdc_vcp.o
 .debug_info    0x0001615c      0x36d ./Third_Party/FreeRTOS/portable/port.o
 .debug_info    0x000164c9      0x2db ./Third_Party/FreeRTOS/heap_2.o
 .debug_info    0x000167a4      0x2c5 ./Third_Party/FreeRTOS/list.o
 .debug_info    0x00016a69      0xb9a ./Third_Party/FreeRTOS/queue.o
 .debug_info    0x00017603      0xfab ./Third_Party/FreeRTOS/tasks.o
 .debug_info    0x000185ae      0x835 ./Third_Party/FreeRTOS/timers.o
 .debug_info    0x00018de3     0x124c ./Drivers/HW.o
 .debug_info    0x0001a02f      0x880 ./Drivers/LCD_4002.o
 .debug_info    0x0001a8af      0xa5e ./Drivers/SerialRS232.o
 .debug_info    0x0001b30d      0x8be ./Drivers/stm32f4_discovery.o
 .debug_info    0x0001bbcb      0x8df ./Applications/CMainHandler.o
 .debug_info    0x0001c4aa      0x5b4 ./Applications/CSerialHandler.o
 .debug_info    0x0001ca5e      0x642 ./Applications/ClassMessage.o
 .debug_info    0x0001d0a0      0x44c ./Applications/LCDHandler.o
 .debug_info    0x0001d4ec      0x406 ./Applications/QueueBox.o
 .debug_info    0x0001d8f2       0xd4 ./Applications/rawMessageHandler.o

.debug_abbrev   0x00000000     0x4bee
 .debug_abbrev  0x00000000      0x12b ./system/STM32F4xx_StdPeriph_Driver/src/misc.o
 .debug_abbrev  0x0000012b      0x159 ./system/STM32F4xx_StdPeriph_Driver/src/stm32f4xx_dma.o
 .debug_abbrev  0x00000284      0x1a9 ./system/STM32F4xx_StdPeriph_Driver/src/stm32f4xx_exti.o
 .debug_abbrev  0x0000042d      0x1a7 ./system/STM32F4xx_StdPeriph_Driver/src/stm32f4xx_gpio.o
 .debug_abbrev  0x000005d4      0x1be ./system/STM32F4xx_StdPeriph_Driver/src/stm32f4xx_rcc.o
 .debug_abbrev  0x00000792      0x17b ./system/STM32F4xx_StdPeriph_Driver/src/stm32f4xx_sdio.o
 .debug_abbrev  0x0000090d      0x135 ./system/STM32F4xx_StdPeriph_Driver/src/stm32f4xx_syscfg.o
 .debug_abbrev  0x00000a42      0x159 ./system/STM32F4xx_StdPeriph_Driver/src/stm32f4xx_usart.o
 .debug_abbrev  0x00000b9b       0x12 ./system/CMSIS/stm32/startup_stm32f40xx.o
 .debug_abbrev  0x00000bad      0x13a ./system/CMSIS/stm32/system_stm32f4xx.o
 .debug_abbrev  0x00000ce7      0x219 ./system/syscalls.o
 .debug_abbrev  0x00000f00       0x8c ./src/main.o
 .debug_abbrev  0x00000f8c      0x1a1 ./src/stm32f4xx_it.o
 .debug_abbrev  0x0000112d      0x202 ./config/usb_config/usb_bsp.o
 .debug_abbrev  0x0000132f      0x130 ./config/usb_config/usbd_desc.o
 .debug_abbrev  0x0000145f       0xe1 ./config/usb_config/usbd_usr.o
 .debug_abbrev  0x00001540       0xb3 ./Third_Party/fat_fs/src/option/ccsbcs.o
 .debug_abbrev  0x000015f3      0x103 ./Third_Party/fat_fs/src/diskio.o
 .debug_abbrev  0x000016f6       0x6b ./Third_Party/fat_fs/src/fattime.o
 .debug_abbrev  0x00001761      0x2a5 ./Third_Party/fat_fs/src/ff.o
 .debug_abbrev  0x00001a06      0x25a ./Third_Party/fat_fs/src/sdio_sd.o
 .debug_abbrev  0x00001c60      0x2be ./Third_Party/USB_Lib/otg/usb_core.o
 .debug_abbrev  0x00001f1e      0x230 ./Third_Party/USB_Lib/otg/usb_dcd.o
 .debug_abbrev  0x0000214e      0x232 ./Third_Party/USB_Lib/otg/usb_dcd_int.o
 .debug_abbrev  0x00002380      0x1f4 ./Third_Party/USB_Lib/core/usbd_core.o
 .debug_abbrev  0x00002574      0x186 ./Third_Party/USB_Lib/core/usbd_ioreq.o
 .debug_abbrev  0x000026fa      0x26a ./Third_Party/USB_Lib/core/usbd_req.o
 .debug_abbrev  0x00002964      0x1ec ./Third_Party/USB_Lib/cdc/usbd_cdc_core.o
 .debug_abbrev  0x00002b50      0x18d ./Third_Party/USB_Lib/cdc/usbd_cdc_vcp.o
 .debug_abbrev  0x00002cdd      0x1b7 ./Third_Party/FreeRTOS/portable/port.o
 .debug_abbrev  0x00002e94      0x154 ./Third_Party/FreeRTOS/heap_2.o
 .debug_abbrev  0x00002fe8       0xc0 ./Third_Party/FreeRTOS/list.o
 .debug_abbrev  0x000030a8      0x1a0 ./Third_Party/FreeRTOS/queue.o
 .debug_abbrev  0x00003248      0x1d3 ./Third_Party/FreeRTOS/tasks.o
 .debug_abbrev  0x0000341b      0x18a ./Third_Party/FreeRTOS/timers.o
 .debug_abbrev  0x000035a5      0x2fc ./Drivers/HW.o
 .debug_abbrev  0x000038a1      0x273 ./Drivers/LCD_4002.o
 .debug_abbrev  0x00003b14      0x272 ./Drivers/SerialRS232.o
 .debug_abbrev  0x00003d86      0x187 ./Drivers/stm32f4_discovery.o
 .debug_abbrev  0x00003f0d      0x2dc ./Applications/CMainHandler.o
 .debug_abbrev  0x000041e9      0x280 ./Applications/CSerialHandler.o
 .debug_abbrev  0x00004469      0x2a5 ./Applications/ClassMessage.o
 .debug_abbrev  0x0000470e      0x213 ./Applications/LCDHandler.o
 .debug_abbrev  0x00004921      0x238 ./Applications/QueueBox.o
 .debug_abbrev  0x00004b59       0x95 ./Applications/rawMessageHandler.o

.debug_loc      0x00000000     0x8650
 .debug_loc     0x00000000      0x118 ./system/STM32F4xx_StdPeriph_Driver/src/misc.o
 .debug_loc     0x00000118      0x428 ./system/STM32F4xx_StdPeriph_Driver/src/stm32f4xx_dma.o
 .debug_loc     0x00000540      0x1b4 ./system/STM32F4xx_StdPeriph_Driver/src/stm32f4xx_exti.o
 .debug_loc     0x000006f4      0x310 ./system/STM32F4xx_StdPeriph_Driver/src/stm32f4xx_gpio.o
 .debug_loc     0x00000a04      0xb3c ./system/STM32F4xx_StdPeriph_Driver/src/stm32f4xx_rcc.o
 .debug_loc     0x00001540      0x648 ./system/STM32F4xx_StdPeriph_Driver/src/stm32f4xx_sdio.o
 .debug_loc     0x00001b88      0x17c ./system/STM32F4xx_StdPeriph_Driver/src/stm32f4xx_syscfg.o
 .debug_loc     0x00001d04      0x658 ./system/STM32F4xx_StdPeriph_Driver/src/stm32f4xx_usart.o
 .debug_loc     0x0000235c       0x9c ./system/CMSIS/stm32/system_stm32f4xx.o
 .debug_loc     0x000023f8      0x608 ./system/syscalls.o
 .debug_loc     0x00002a00       0x3a ./src/main.o
 .debug_loc     0x00002a3a      0x344 ./src/stm32f4xx_it.o
 .debug_loc     0x00002d7e      0x150 ./config/usb_config/usb_bsp.o
 .debug_loc     0x00002ece      0x188 ./config/usb_config/usbd_desc.o
 .debug_loc     0x00003056      0x140 ./config/usb_config/usbd_usr.o
 .debug_loc     0x00003196       0x70 ./Third_Party/fat_fs/src/option/ccsbcs.o
 .debug_loc     0x00003206      0x118 ./Third_Party/fat_fs/src/diskio.o
 .debug_loc     0x0000331e       0x2c ./Third_Party/fat_fs/src/fattime.o
 .debug_loc     0x0000334a      0xb10 ./Third_Party/fat_fs/src/ff.o
 .debug_loc     0x00003e5a      0x95c ./Third_Party/fat_fs/src/sdio_sd.o
 .debug_loc     0x000047b6      0x7e0 ./Third_Party/USB_Lib/otg/usb_core.o
 .debug_loc     0x00004f96      0x2d8 ./Third_Party/USB_Lib/otg/usb_dcd.o
 .debug_loc     0x0000526e      0x2d8 ./Third_Party/USB_Lib/otg/usb_dcd_int.o
 .debug_loc     0x00005546      0x2d8 ./Third_Party/USB_Lib/core/usbd_core.o
 .debug_loc     0x0000581e      0x188 ./Third_Party/USB_Lib/core/usbd_ioreq.o
 .debug_loc     0x000059a6      0x310 ./Third_Party/USB_Lib/core/usbd_req.o
 .debug_loc     0x00005cb6      0x1f8 ./Third_Party/USB_Lib/cdc/usbd_cdc_core.o
 .debug_loc     0x00005eae      0x244 ./Third_Party/USB_Lib/cdc/usbd_cdc_vcp.o
 .debug_loc     0x000060f2      0x1dc ./Third_Party/FreeRTOS/portable/port.o
 .debug_loc     0x000062ce      0x100 ./Third_Party/FreeRTOS/heap_2.o
 .debug_loc     0x000063ce      0x118 ./Third_Party/FreeRTOS/list.o
 .debug_loc     0x000064e6      0x578 ./Third_Party/FreeRTOS/queue.o
 .debug_loc     0x00006a5e      0x890 ./Third_Party/FreeRTOS/tasks.o
 .debug_loc     0x000072ee      0x33c ./Third_Party/FreeRTOS/timers.o
 .debug_loc     0x0000762a      0x12c ./Drivers/HW.o
 .debug_loc     0x00007756      0x3f0 ./Drivers/LCD_4002.o
 .debug_loc     0x00007b46      0x1c0 ./Drivers/SerialRS232.o
 .debug_loc     0x00007d06      0x150 ./Drivers/stm32f4_discovery.o
 .debug_loc     0x00007e56      0x18a ./Applications/CMainHandler.o
 .debug_loc     0x00007fe0      0x18a ./Applications/CSerialHandler.o
 .debug_loc     0x0000816a      0x1ec ./Applications/ClassMessage.o
 .debug_loc     0x00008356      0x11a ./Applications/LCDHandler.o
 .debug_loc     0x00008470      0x170 ./Applications/QueueBox.o
 .debug_loc     0x000085e0       0x70 ./Applications/rawMessageHandler.o

.debug_aranges  0x00000000     0x1818
 .debug_aranges
                0x00000000       0x40 ./system/STM32F4xx_StdPeriph_Driver/src/misc.o
 .debug_aranges
                0x00000040       0xb0 ./system/STM32F4xx_StdPeriph_Driver/src/stm32f4xx_dma.o
 .debug_aranges
                0x000000f0       0x58 ./system/STM32F4xx_StdPeriph_Driver/src/stm32f4xx_exti.o
 .debug_aranges
                0x00000148       0x88 ./system/STM32F4xx_StdPeriph_Driver/src/stm32f4xx_gpio.o
 .debug_aranges
                0x000001d0      0x1b8 ./system/STM32F4xx_StdPeriph_Driver/src/stm32f4xx_rcc.o
 .debug_aranges
                0x00000388      0x108 ./system/STM32F4xx_StdPeriph_Driver/src/stm32f4xx_sdio.o
 .debug_aranges
                0x00000490       0x50 ./system/STM32F4xx_StdPeriph_Driver/src/stm32f4xx_syscfg.o
 .debug_aranges
                0x000004e0      0x100 ./system/STM32F4xx_StdPeriph_Driver/src/stm32f4xx_usart.o
 .debug_aranges
                0x000005e0       0x28 ./system/CMSIS/stm32/startup_stm32f40xx.o
 .debug_aranges
                0x00000608       0x30 ./system/CMSIS/stm32/system_stm32f4xx.o
 .debug_aranges
                0x00000638       0xf8 ./system/syscalls.o
 .debug_aranges
                0x00000730       0x20 ./src/main.o
 .debug_aranges
                0x00000750       0xb0 ./src/stm32f4xx_it.o
 .debug_aranges
                0x00000800       0x48 ./config/usb_config/usb_bsp.o
 .debug_aranges
                0x00000848       0x50 ./config/usb_config/usbd_desc.o
 .debug_aranges
                0x00000898       0x50 ./config/usb_config/usbd_usr.o
 .debug_aranges
                0x000008e8       0x28 ./Third_Party/fat_fs/src/option/ccsbcs.o
 .debug_aranges
                0x00000910       0x40 ./Third_Party/fat_fs/src/diskio.o
 .debug_aranges
                0x00000950       0x20 ./Third_Party/fat_fs/src/fattime.o
 .debug_aranges
                0x00000970      0x1a8 ./Third_Party/fat_fs/src/ff.o
 .debug_aranges
                0x00000b18      0x178 ./Third_Party/fat_fs/src/sdio_sd.o
 .debug_aranges
                0x00000c90      0x138 ./Third_Party/USB_Lib/otg/usb_core.o
 .debug_aranges
                0x00000dc8       0x80 ./Third_Party/USB_Lib/otg/usb_dcd.o
 .debug_aranges
                0x00000e48       0x80 ./Third_Party/USB_Lib/otg/usb_dcd_int.o
 .debug_aranges
                0x00000ec8       0x80 ./Third_Party/USB_Lib/core/usbd_core.o
 .debug_aranges
                0x00000f48       0x50 ./Third_Party/USB_Lib/core/usbd_ioreq.o
 .debug_aranges
                0x00000f98       0x88 ./Third_Party/USB_Lib/core/usbd_req.o
 .debug_aranges
                0x00001020       0x60 ./Third_Party/USB_Lib/cdc/usbd_cdc_core.o
 .debug_aranges
                0x00001080       0x70 ./Third_Party/USB_Lib/cdc/usbd_cdc_vcp.o
 .debug_aranges
                0x000010f0       0x98 ./Third_Party/FreeRTOS/portable/port.o
 .debug_aranges
                0x00001188       0x40 ./Third_Party/FreeRTOS/heap_2.o
 .debug_aranges
                0x000011c8       0x40 ./Third_Party/FreeRTOS/list.o
 .debug_aranges
                0x00001208       0xe0 ./Third_Party/FreeRTOS/queue.o
 .debug_aranges
                0x000012e8      0x158 ./Third_Party/FreeRTOS/tasks.o
 .debug_aranges
                0x00001440       0x90 ./Third_Party/FreeRTOS/timers.o
 .debug_aranges
                0x000014d0       0x48 ./Drivers/HW.o
 .debug_aranges
                0x00001518       0xa8 ./Drivers/LCD_4002.o
 .debug_aranges
                0x000015c0       0x58 ./Drivers/SerialRS232.o
 .debug_aranges
                0x00001618       0x48 ./Drivers/stm32f4_discovery.o
 .debug_aranges
                0x00001660       0x50 ./Applications/CMainHandler.o
 .debug_aranges
                0x000016b0       0x50 ./Applications/CSerialHandler.o
 .debug_aranges
                0x00001700       0x60 ./Applications/ClassMessage.o
 .debug_aranges
                0x00001760       0x40 ./Applications/LCDHandler.o
 .debug_aranges
                0x000017a0       0x50 ./Applications/QueueBox.o
 .debug_aranges
                0x000017f0       0x28 ./Applications/rawMessageHandler.o

.debug_ranges   0x00000000     0x1550
 .debug_ranges  0x00000000       0x30 ./system/STM32F4xx_StdPeriph_Driver/src/misc.o
 .debug_ranges  0x00000030       0xa0 ./system/STM32F4xx_StdPeriph_Driver/src/stm32f4xx_dma.o
 .debug_ranges  0x000000d0       0x48 ./system/STM32F4xx_StdPeriph_Driver/src/stm32f4xx_exti.o
 .debug_ranges  0x00000118       0x78 ./system/STM32F4xx_StdPeriph_Driver/src/stm32f4xx_gpio.o
 .debug_ranges  0x00000190      0x1a8 ./system/STM32F4xx_StdPeriph_Driver/src/stm32f4xx_rcc.o
 .debug_ranges  0x00000338       0xf8 ./system/STM32F4xx_StdPeriph_Driver/src/stm32f4xx_sdio.o
 .debug_ranges  0x00000430       0x40 ./system/STM32F4xx_StdPeriph_Driver/src/stm32f4xx_syscfg.o
 .debug_ranges  0x00000470       0xf0 ./system/STM32F4xx_StdPeriph_Driver/src/stm32f4xx_usart.o
 .debug_ranges  0x00000560       0x20 ./system/CMSIS/stm32/startup_stm32f40xx.o
 .debug_ranges  0x00000580       0x20 ./system/CMSIS/stm32/system_stm32f4xx.o
 .debug_ranges  0x000005a0       0xe8 ./system/syscalls.o
 .debug_ranges  0x00000688       0x10 ./src/main.o
 .debug_ranges  0x00000698       0xa0 ./src/stm32f4xx_it.o
 .debug_ranges  0x00000738       0x38 ./config/usb_config/usb_bsp.o
 .debug_ranges  0x00000770       0x40 ./config/usb_config/usbd_desc.o
 .debug_ranges  0x000007b0       0x40 ./config/usb_config/usbd_usr.o
 .debug_ranges  0x000007f0       0x18 ./Third_Party/fat_fs/src/option/ccsbcs.o
 .debug_ranges  0x00000808       0x30 ./Third_Party/fat_fs/src/diskio.o
 .debug_ranges  0x00000838       0x10 ./Third_Party/fat_fs/src/fattime.o
 .debug_ranges  0x00000848      0x198 ./Third_Party/fat_fs/src/ff.o
 .debug_ranges  0x000009e0      0x168 ./Third_Party/fat_fs/src/sdio_sd.o
 .debug_ranges  0x00000b48      0x128 ./Third_Party/USB_Lib/otg/usb_core.o
 .debug_ranges  0x00000c70       0x70 ./Third_Party/USB_Lib/otg/usb_dcd.o
 .debug_ranges  0x00000ce0       0x70 ./Third_Party/USB_Lib/otg/usb_dcd_int.o
 .debug_ranges  0x00000d50       0x70 ./Third_Party/USB_Lib/core/usbd_core.o
 .debug_ranges  0x00000dc0       0x40 ./Third_Party/USB_Lib/core/usbd_ioreq.o
 .debug_ranges  0x00000e00       0x78 ./Third_Party/USB_Lib/core/usbd_req.o
 .debug_ranges  0x00000e78       0x50 ./Third_Party/USB_Lib/cdc/usbd_cdc_core.o
 .debug_ranges  0x00000ec8       0x60 ./Third_Party/USB_Lib/cdc/usbd_cdc_vcp.o
 .debug_ranges  0x00000f28       0x88 ./Third_Party/FreeRTOS/portable/port.o
 .debug_ranges  0x00000fb0       0x30 ./Third_Party/FreeRTOS/heap_2.o
 .debug_ranges  0x00000fe0       0x30 ./Third_Party/FreeRTOS/list.o
 .debug_ranges  0x00001010       0xd0 ./Third_Party/FreeRTOS/queue.o
 .debug_ranges  0x000010e0      0x148 ./Third_Party/FreeRTOS/tasks.o
 .debug_ranges  0x00001228       0x80 ./Third_Party/FreeRTOS/timers.o
 .debug_ranges  0x000012a8       0x38 ./Drivers/HW.o
 .debug_ranges  0x000012e0       0x98 ./Drivers/LCD_4002.o
 .debug_ranges  0x00001378       0x48 ./Drivers/SerialRS232.o
 .debug_ranges  0x000013c0       0x38 ./Drivers/stm32f4_discovery.o
 .debug_ranges  0x000013f8       0x40 ./Applications/CMainHandler.o
 .debug_ranges  0x00001438       0x40 ./Applications/CSerialHandler.o
 .debug_ranges  0x00001478       0x50 ./Applications/ClassMessage.o
 .debug_ranges  0x000014c8       0x30 ./Applications/LCDHandler.o
 .debug_ranges  0x000014f8       0x40 ./Applications/QueueBox.o
 .debug_ranges  0x00001538       0x18 ./Applications/rawMessageHandler.o

.debug_line     0x00000000     0xa0d9
 .debug_line    0x00000000      0x21b ./system/STM32F4xx_StdPeriph_Driver/src/misc.o
 .debug_line    0x0000021b      0x3b2 ./system/STM32F4xx_StdPeriph_Driver/src/stm32f4xx_dma.o
 .debug_line    0x000005cd      0x272 ./system/STM32F4xx_StdPeriph_Driver/src/stm32f4xx_exti.o
 .debug_line    0x0000083f      0x31b ./system/STM32F4xx_StdPeriph_Driver/src/stm32f4xx_gpio.o
 .debug_line    0x00000b5a      0x614 ./system/STM32F4xx_StdPeriph_Driver/src/stm32f4xx_rcc.o
 .debug_line    0x0000116e      0x41a ./system/STM32F4xx_StdPeriph_Driver/src/stm32f4xx_sdio.o
 .debug_line    0x00001588      0x1e9 ./system/STM32F4xx_StdPeriph_Driver/src/stm32f4xx_syscfg.o
 .debug_line    0x00001771      0x47e ./system/STM32F4xx_StdPeriph_Driver/src/stm32f4xx_usart.o
 .debug_line    0x00001bef       0x86 ./system/CMSIS/stm32/startup_stm32f40xx.o
 .debug_line    0x00001c75      0x191 ./system/CMSIS/stm32/system_stm32f4xx.o
 .debug_line    0x00001e06      0x343 ./system/syscalls.o
 .debug_line    0x00002149      0x156 ./src/main.o
 .debug_line    0x0000229f      0x2f5 ./src/stm32f4xx_it.o
 .debug_line    0x00002594      0x2b1 ./config/usb_config/usb_bsp.o
 .debug_line    0x00002845      0x1e6 ./config/usb_config/usbd_desc.o
 .debug_line    0x00002a2b      0x1c2 ./config/usb_config/usbd_usr.o
 .debug_line    0x00002bed      0x1b3 ./Third_Party/fat_fs/src/option/ccsbcs.o
 .debug_line    0x00002da0      0x241 ./Third_Party/fat_fs/src/diskio.o
 .debug_line    0x00002fe1      0x15a ./Third_Party/fat_fs/src/fattime.o
 .debug_line    0x0000313b     0x127e ./Third_Party/fat_fs/src/ff.o
 .debug_line    0x000043b9      0xb2b ./Third_Party/fat_fs/src/sdio_sd.o
 .debug_line    0x00004ee4      0x665 ./Third_Party/USB_Lib/otg/usb_core.o
 .debug_line    0x00005549      0x2d6 ./Third_Party/USB_Lib/otg/usb_dcd.o
 .debug_line    0x0000581f      0x35f ./Third_Party/USB_Lib/otg/usb_dcd_int.o
 .debug_line    0x00005b7e      0x2fb ./Third_Party/USB_Lib/core/usbd_core.o
 .debug_line    0x00005e79      0x203 ./Third_Party/USB_Lib/core/usbd_ioreq.o
 .debug_line    0x0000607c      0x3ba ./Third_Party/USB_Lib/core/usbd_req.o
 .debug_line    0x00006436      0x2bf ./Third_Party/USB_Lib/cdc/usbd_cdc_core.o
 .debug_line    0x000066f5      0x30b ./Third_Party/USB_Lib/cdc/usbd_cdc_vcp.o
 .debug_line    0x00006a00      0x316 ./Third_Party/FreeRTOS/portable/port.o
 .debug_line    0x00006d16      0x21b ./Third_Party/FreeRTOS/heap_2.o
 .debug_line    0x00006f31      0x1da ./Third_Party/FreeRTOS/list.o
 .debug_line    0x0000710b      0x772 ./Third_Party/FreeRTOS/queue.o
 .debug_line    0x0000787d      0x9b2 ./Third_Party/FreeRTOS/tasks.o
 .debug_line    0x0000822f      0x39a ./Third_Party/FreeRTOS/timers.o
 .debug_line    0x000085c9      0x36e ./Drivers/HW.o
 .debug_line    0x00008937      0x388 ./Drivers/LCD_4002.o
 .debug_line    0x00008cbf      0x313 ./Drivers/SerialRS232.o
 .debug_line    0x00008fd2      0x260 ./Drivers/stm32f4_discovery.o
 .debug_line    0x00009232      0x32e ./Applications/CMainHandler.o
 .debug_line    0x00009560      0x317 ./Applications/CSerialHandler.o
 .debug_line    0x00009877      0x34d ./Applications/ClassMessage.o
 .debug_line    0x00009bc4      0x2a7 ./Applications/LCDHandler.o
 .debug_line    0x00009e6b      0x207 ./Applications/QueueBox.o
 .debug_line    0x0000a072       0x67 ./Applications/rawMessageHandler.o

.debug_str      0x00000000     0x7d0e
 .debug_str     0x00000000      0x2fd ./system/STM32F4xx_StdPeriph_Driver/src/misc.o
                                0x35f (size before relaxing)
 .debug_str     0x000002fd      0x39b ./system/STM32F4xx_StdPeriph_Driver/src/stm32f4xx_dma.o
                                0x4d2 (size before relaxing)
 .debug_str     0x00000698      0x1bd ./system/STM32F4xx_StdPeriph_Driver/src/stm32f4xx_exti.o
                                0x2e7 (size before relaxing)
 .debug_str     0x00000855      0x2a1 ./system/STM32F4xx_StdPeriph_Driver/src/stm32f4xx_gpio.o
                                0x426 (size before relaxing)
 .debug_str     0x00000af6      0x778 ./system/STM32F4xx_StdPeriph_Driver/src/stm32f4xx_rcc.o
                                0x91b (size before relaxing)
 .debug_str     0x0000126e      0x471 ./system/STM32F4xx_StdPeriph_Driver/src/stm32f4xx_sdio.o
                                0x5d1 (size before relaxing)
 .debug_str     0x000016df      0x16d ./system/STM32F4xx_StdPeriph_Driver/src/stm32f4xx_syscfg.o
                                0x29f (size before relaxing)
 .debug_str     0x0000184c      0x400 ./system/STM32F4xx_StdPeriph_Driver/src/stm32f4xx_usart.o
                                0x615 (size before relaxing)
 .debug_str     0x00001c4c       0xae ./system/CMSIS/stm32/system_stm32f4xx.o
                                0x33d (size before relaxing)
 .debug_str     0x00001cfa      0x56d ./system/syscalls.o
                                0x6f0 (size before relaxing)
 .debug_str     0x00002267       0x4b ./src/main.o
                                0x134 (size before relaxing)
 .debug_str     0x000022b2      0x7a5 ./src/stm32f4xx_it.o
                                0xa3c (size before relaxing)
 .debug_str     0x00002a57      0x5e4 ./config/usb_config/usb_bsp.o
                               0x1129 (size before relaxing)
 .debug_str     0x0000303b      0x142 ./config/usb_config/usbd_desc.o
                                0x309 (size before relaxing)
 .debug_str     0x0000317d       0xc9 ./config/usb_config/usbd_usr.o
                                0x23b (size before relaxing)
 .debug_str     0x00003246       0x66 ./Third_Party/fat_fs/src/option/ccsbcs.o
                                0x149 (size before relaxing)
 .debug_str     0x000032ac      0x6c2 ./Third_Party/fat_fs/src/diskio.o
                                0x7e2 (size before relaxing)
 .debug_str     0x0000396e       0x30 ./Third_Party/fat_fs/src/fattime.o
                                0x11a (size before relaxing)
 .debug_str     0x0000399e      0x512 ./Third_Party/fat_fs/src/ff.o
                                0x6c1 (size before relaxing)
 .debug_str     0x00003eb0      0x60a ./Third_Party/fat_fs/src/sdio_sd.o
                               0x17aa (size before relaxing)
 .debug_str     0x000044ba      0xbbd ./Third_Party/USB_Lib/otg/usb_core.o
                               0x1608 (size before relaxing)
 .debug_str     0x00005077      0x103 ./Third_Party/USB_Lib/otg/usb_dcd.o
                                0xaa8 (size before relaxing)
 .debug_str     0x0000517a      0x2c5 ./Third_Party/USB_Lib/otg/usb_dcd_int.o
                               0x1206 (size before relaxing)
 .debug_str     0x0000543f      0x120 ./Third_Party/USB_Lib/core/usbd_core.o
                                0xa4e (size before relaxing)
 .debug_str     0x0000555f       0xb1 ./Third_Party/USB_Lib/core/usbd_ioreq.o
                                0x938 (size before relaxing)
 .debug_str     0x00005610      0x14e ./Third_Party/USB_Lib/core/usbd_req.o
                                0xa79 (size before relaxing)
 .debug_str     0x0000575e      0x1fd ./Third_Party/USB_Lib/cdc/usbd_cdc_core.o
                                0xa96 (size before relaxing)
 .debug_str     0x0000595b      0x133 ./Third_Party/USB_Lib/cdc/usbd_cdc_vcp.o
                                0x333 (size before relaxing)
 .debug_str     0x00005a8e      0x271 ./Third_Party/FreeRTOS/portable/port.o
                                0x377 (size before relaxing)
 .debug_str     0x00005cff      0x160 ./Third_Party/FreeRTOS/heap_2.o
                                0x25a (size before relaxing)
 .debug_str     0x00005e5f      0x131 ./Third_Party/FreeRTOS/list.o
                                0x235 (size before relaxing)
 .debug_str     0x00005f90      0x48e ./Third_Party/FreeRTOS/queue.o
                                0x667 (size before relaxing)
 .debug_str     0x0000641e      0x746 ./Third_Party/FreeRTOS/tasks.o
                                0x98f (size before relaxing)
 .debug_str     0x00006b64      0x3a3 ./Third_Party/FreeRTOS/timers.o
                                0x5bf (size before relaxing)
 .debug_str     0x00006f07      0x2b9 ./Drivers/HW.o
                                0xc2c (size before relaxing)
 .debug_str     0x000071c0      0x23f ./Drivers/LCD_4002.o
                                0x604 (size before relaxing)
 .debug_str     0x000073ff       0x9a ./Drivers/SerialRS232.o
                                0xb90 (size before relaxing)
 .debug_str     0x00007499      0x175 ./Drivers/stm32f4_discovery.o
                                0xa9b (size before relaxing)
 .debug_str     0x0000760e      0x23f ./Applications/CMainHandler.o
                                0x5d2 (size before relaxing)
 .debug_str     0x0000784d      0x17e ./Applications/CSerialHandler.o
                                0x420 (size before relaxing)
 .debug_str     0x000079cb      0x1af ./Applications/ClassMessage.o
                                0x46a (size before relaxing)
 .debug_str     0x00007b7a       0x7d ./Applications/LCDHandler.o
                                0x2e4 (size before relaxing)
 .debug_str     0x00007bf7       0xce ./Applications/QueueBox.o
                                0x2b0 (size before relaxing)
 .debug_str     0x00007cc5       0x49 ./Applications/rawMessageHandler.o
                                 0xaf (size before relaxing)

.comment        0x00000000       0x30
 .comment       0x00000000       0x30 ./system/STM32F4xx_StdPeriph_Driver/src/misc.o
                                 0x31 (size before relaxing)
 .comment       0x00000000       0x31 ./system/STM32F4xx_StdPeriph_Driver/src/stm32f4xx_dma.o
 .comment       0x00000000       0x31 ./system/STM32F4xx_StdPeriph_Driver/src/stm32f4xx_exti.o
 .comment       0x00000000       0x31 ./system/STM32F4xx_StdPeriph_Driver/src/stm32f4xx_gpio.o
 .comment       0x00000000       0x31 ./system/STM32F4xx_StdPeriph_Driver/src/stm32f4xx_rcc.o
 .comment       0x00000000       0x31 ./system/STM32F4xx_StdPeriph_Driver/src/stm32f4xx_sdio.o
 .comment       0x00000000       0x31 ./system/STM32F4xx_StdPeriph_Driver/src/stm32f4xx_syscfg.o
 .comment       0x00000000       0x31 ./system/STM32F4xx_StdPeriph_Driver/src/stm32f4xx_usart.o
 .comment       0x00000000       0x31 ./system/CMSIS/stm32/system_stm32f4xx.o
 .comment       0x00000000       0x31 ./system/syscalls.o
 .comment       0x00000000       0x31 ./src/main.o
 .comment       0x00000000       0x31 ./src/stm32f4xx_it.o
 .comment       0x00000000       0x31 ./config/usb_config/usb_bsp.o
 .comment       0x00000000       0x31 ./config/usb_config/usbd_desc.o
 .comment       0x00000000       0x31 ./config/usb_config/usbd_usr.o
 .comment       0x00000000       0x31 ./Third_Party/fat_fs/src/option/ccsbcs.o
 .comment       0x00000000       0x31 ./Third_Party/fat_fs/src/diskio.o
 .comment       0x00000000       0x31 ./Third_Party/fat_fs/src/fattime.o
 .comment       0x00000000       0x31 ./Third_Party/fat_fs/src/ff.o
 .comment       0x00000000       0x31 ./Third_Party/fat_fs/src/sdio_sd.o
 .comment       0x00000000       0x31 ./Third_Party/USB_Lib/otg/usb_core.o
 .comment       0x00000000       0x31 ./Third_Party/USB_Lib/otg/usb_dcd.o
 .comment       0x00000000       0x31 ./Third_Party/USB_Lib/otg/usb_dcd_int.o
 .comment       0x00000000       0x31 ./Third_Party/USB_Lib/core/usbd_core.o
 .comment       0x00000000       0x31 ./Third_Party/USB_Lib/core/usbd_ioreq.o
 .comment       0x00000000       0x31 ./Third_Party/USB_Lib/core/usbd_req.o
 .comment       0x00000000       0x31 ./Third_Party/USB_Lib/cdc/usbd_cdc_core.o
 .comment       0x00000000       0x31 ./Third_Party/USB_Lib/cdc/usbd_cdc_vcp.o
 .comment       0x00000000       0x31 ./Third_Party/FreeRTOS/portable/port.o
 .comment       0x00000000       0x31 ./Third_Party/FreeRTOS/heap_2.o
 .comment       0x00000000       0x31 ./Third_Party/FreeRTOS/list.o
 .comment       0x00000000       0x31 ./Third_Party/FreeRTOS/queue.o
 .comment       0x00000000       0x31 ./Third_Party/FreeRTOS/tasks.o
 .comment       0x00000000       0x31 ./Third_Party/FreeRTOS/timers.o
 .comment       0x00000000       0x31 ./Drivers/HW.o
 .comment       0x00000000       0x31 ./Drivers/LCD_4002.o
 .comment       0x00000000       0x31 ./Drivers/SerialRS232.o
 .comment       0x00000000       0x31 ./Drivers/stm32f4_discovery.o
 .comment       0x00000000       0x31 ./Applications/CMainHandler.o
 .comment       0x00000000       0x31 ./Applications/CSerialHandler.o
 .comment       0x00000000       0x31 ./Applications/ClassMessage.o
 .comment       0x00000000       0x31 ./Applications/LCDHandler.o
 .comment       0x00000000       0x31 ./Applications/QueueBox.o
 .comment       0x00000000       0x31 ./Applications/rawMessageHandler.o

.ARM.attributes
                0x00000000       0x35
 .ARM.attributes
                0x00000000       0x37 ./system/STM32F4xx_StdPeriph_Driver/src/misc.o
 .ARM.attributes
                0x00000037       0x37 ./system/STM32F4xx_StdPeriph_Driver/src/stm32f4xx_dma.o
 .ARM.attributes
                0x0000006e       0x37 ./system/STM32F4xx_StdPeriph_Driver/src/stm32f4xx_exti.o
 .ARM.attributes
                0x000000a5       0x37 ./system/STM32F4xx_StdPeriph_Driver/src/stm32f4xx_gpio.o
 .ARM.attributes
                0x000000dc       0x37 ./system/STM32F4xx_StdPeriph_Driver/src/stm32f4xx_rcc.o
 .ARM.attributes
                0x00000113       0x37 ./system/STM32F4xx_StdPeriph_Driver/src/stm32f4xx_sdio.o
 .ARM.attributes
                0x0000014a       0x37 ./system/STM32F4xx_StdPeriph_Driver/src/stm32f4xx_syscfg.o
 .ARM.attributes
                0x00000181       0x37 ./system/STM32F4xx_StdPeriph_Driver/src/stm32f4xx_usart.o
 .ARM.attributes
                0x000001b8       0x21 ./system/CMSIS/stm32/startup_stm32f40xx.o
 .ARM.attributes
                0x000001d9       0x37 ./system/CMSIS/stm32/system_stm32f4xx.o
 .ARM.attributes
                0x00000210       0x37 ./system/syscalls.o
 .ARM.attributes
                0x00000247       0x37 ./src/main.o
 .ARM.attributes
                0x0000027e       0x37 ./src/stm32f4xx_it.o
 .ARM.attributes
                0x000002b5       0x37 ./config/usb_config/usb_bsp.o
 .ARM.attributes
                0x000002ec       0x37 ./config/usb_config/usbd_desc.o
 .ARM.attributes
                0x00000323       0x37 ./config/usb_config/usbd_usr.o
 .ARM.attributes
                0x0000035a       0x37 ./Third_Party/fat_fs/src/option/ccsbcs.o
 .ARM.attributes
                0x00000391       0x37 ./Third_Party/fat_fs/src/diskio.o
 .ARM.attributes
                0x000003c8       0x37 ./Third_Party/fat_fs/src/fattime.o
 .ARM.attributes
                0x000003ff       0x37 ./Third_Party/fat_fs/src/ff.o
 .ARM.attributes
                0x00000436       0x37 ./Third_Party/fat_fs/src/sdio_sd.o
 .ARM.attributes
                0x0000046d       0x37 ./Third_Party/USB_Lib/otg/usb_core.o
 .ARM.attributes
                0x000004a4       0x37 ./Third_Party/USB_Lib/otg/usb_dcd.o
 .ARM.attributes
                0x000004db       0x37 ./Third_Party/USB_Lib/otg/usb_dcd_int.o
 .ARM.attributes
                0x00000512       0x37 ./Third_Party/USB_Lib/core/usbd_core.o
 .ARM.attributes
                0x00000549       0x37 ./Third_Party/USB_Lib/core/usbd_ioreq.o
 .ARM.attributes
                0x00000580       0x37 ./Third_Party/USB_Lib/core/usbd_req.o
 .ARM.attributes
                0x000005b7       0x37 ./Third_Party/USB_Lib/cdc/usbd_cdc_core.o
 .ARM.attributes
                0x000005ee       0x37 ./Third_Party/USB_Lib/cdc/usbd_cdc_vcp.o
 .ARM.attributes
                0x00000625       0x37 ./Third_Party/FreeRTOS/portable/port.o
 .ARM.attributes
                0x0000065c       0x37 ./Third_Party/FreeRTOS/heap_2.o
 .ARM.attributes
                0x00000693       0x37 ./Third_Party/FreeRTOS/list.o
 .ARM.attributes
                0x000006ca       0x37 ./Third_Party/FreeRTOS/queue.o
 .ARM.attributes
                0x00000701       0x37 ./Third_Party/FreeRTOS/tasks.o
 .ARM.attributes
                0x00000738       0x37 ./Third_Party/FreeRTOS/timers.o
 .ARM.attributes
                0x0000076f       0x37 ./Drivers/HW.o
 .ARM.attributes
                0x000007a6       0x37 ./Drivers/LCD_4002.o
 .ARM.attributes
                0x000007dd       0x37 ./Drivers/SerialRS232.o
 .ARM.attributes
                0x00000814       0x37 ./Drivers/stm32f4_discovery.o
 .ARM.attributes
                0x0000084b       0x37 ./Applications/CMainHandler.o
 .ARM.attributes
                0x00000882       0x37 ./Applications/CSerialHandler.o
 .ARM.attributes
                0x000008b9       0x37 ./Applications/ClassMessage.o
 .ARM.attributes
                0x000008f0       0x37 ./Applications/LCDHandler.o
 .ARM.attributes
                0x00000927       0x37 ./Applications/QueueBox.o
 .ARM.attributes
                0x0000095e       0x37 ./Applications/rawMessageHandler.o
 .ARM.attributes
                0x00000995       0x29 /opt/codesourcery/arm-2012.09/bin/../lib/gcc/arm-none-eabi/4.7.2/../../../../arm-none-eabi/lib/thumb2/libstdc++.a(del_op.o)
 .ARM.attributes
                0x000009be       0x29 /opt/codesourcery/arm-2012.09/bin/../lib/gcc/arm-none-eabi/4.7.2/../../../../arm-none-eabi/lib/thumb2/libc.a(lib_a-atexit.o)
 .ARM.attributes
                0x000009e7       0x29 /opt/codesourcery/arm-2012.09/bin/../lib/gcc/arm-none-eabi/4.7.2/../../../../arm-none-eabi/lib/thumb2/libc.a(lib_a-atoi.o)
 .ARM.attributes
                0x00000a10       0x29 /opt/codesourcery/arm-2012.09/bin/../lib/gcc/arm-none-eabi/4.7.2/../../../../arm-none-eabi/lib/thumb2/libc.a(lib_a-errno.o)
 .ARM.attributes
                0x00000a39       0x29 /opt/codesourcery/arm-2012.09/bin/../lib/gcc/arm-none-eabi/4.7.2/../../../../arm-none-eabi/lib/thumb2/libc.a(lib_a-impure.o)
 .ARM.attributes
                0x00000a62       0x29 /opt/codesourcery/arm-2012.09/bin/../lib/gcc/arm-none-eabi/4.7.2/../../../../arm-none-eabi/lib/thumb2/libc.a(lib_a-malloc.o)
 .ARM.attributes
                0x00000a8b       0x29 /opt/codesourcery/arm-2012.09/bin/../lib/gcc/arm-none-eabi/4.7.2/../../../../arm-none-eabi/lib/thumb2/libc.a(lib_a-mallocr.o)
 .ARM.attributes
                0x00000ab4       0x29 /opt/codesourcery/arm-2012.09/bin/../lib/gcc/arm-none-eabi/4.7.2/../../../../arm-none-eabi/lib/thumb2/libc.a(lib_a-memcmp.o)
 .ARM.attributes
                0x00000add       0x29 /opt/codesourcery/arm-2012.09/bin/../lib/gcc/arm-none-eabi/4.7.2/../../../../arm-none-eabi/lib/thumb2/libc.a(lib_a-memcpy.o)
 .ARM.attributes
                0x00000b06       0x29 /opt/codesourcery/arm-2012.09/bin/../lib/gcc/arm-none-eabi/4.7.2/../../../../arm-none-eabi/lib/thumb2/libc.a(lib_a-memset.o)
 .ARM.attributes
                0x00000b2f       0x29 /opt/codesourcery/arm-2012.09/bin/../lib/gcc/arm-none-eabi/4.7.2/../../../../arm-none-eabi/lib/thumb2/libc.a(lib_a-mlock.o)
 .ARM.attributes
                0x00000b58       0x29 /opt/codesourcery/arm-2012.09/bin/../lib/gcc/arm-none-eabi/4.7.2/../../../../arm-none-eabi/lib/thumb2/libc.a(lib_a-strtol.o)
 .ARM.attributes
                0x00000b81       0x29 /opt/codesourcery/arm-2012.09/bin/../lib/gcc/arm-none-eabi/4.7.2/../../../../arm-none-eabi/lib/thumb2/libc.a(lib_a-__atexit.o)
 .ARM.attributes
                0x00000baa       0x29 /opt/codesourcery/arm-2012.09/bin/../lib/gcc/arm-none-eabi/4.7.2/../../../../arm-none-eabi/lib/thumb2/libc.a(lib_a-ctype_.o)
 .ARM.attributes
                0x00000bd3       0x29 /opt/codesourcery/arm-2012.09/bin/../lib/gcc/arm-none-eabi/4.7.2/../../../../arm-none-eabi/lib/thumb2/libc.a(lib_a-freer.o)
 .ARM.attributes
                0x00000bfc       0x19 /opt/codesourcery/arm-2012.09/bin/../lib/gcc/arm-none-eabi/4.7.2/thumb2/libgcc.a(_udivsi3.o)
 .ARM.attributes
                0x00000c15       0x19 /opt/codesourcery/arm-2012.09/bin/../lib/gcc/arm-none-eabi/4.7.2/thumb2/libgcc.a(_dvmd_tls.o)

.debug_frame    0x00000000     0x4ec4
 .debug_frame   0x00000000       0x9c ./system/STM32F4xx_StdPeriph_Driver/src/misc.o
 .debug_frame   0x0000009c      0x224 ./system/STM32F4xx_StdPeriph_Driver/src/stm32f4xx_dma.o
 .debug_frame   0x000002c0       0xec ./system/STM32F4xx_StdPeriph_Driver/src/stm32f4xx_exti.o
 .debug_frame   0x000003ac      0x19c ./system/STM32F4xx_StdPeriph_Driver/src/stm32f4xx_gpio.o
 .debug_frame   0x00000548      0x5b8 ./system/STM32F4xx_StdPeriph_Driver/src/stm32f4xx_rcc.o
 .debug_frame   0x00000b00      0x344 ./system/STM32F4xx_StdPeriph_Driver/src/stm32f4xx_sdio.o
 .debug_frame   0x00000e44       0xd8 ./system/STM32F4xx_StdPeriph_Driver/src/stm32f4xx_syscfg.o
 .debug_frame   0x00000f1c      0x344 ./system/STM32F4xx_StdPeriph_Driver/src/stm32f4xx_usart.o
 .debug_frame   0x00001260       0x64 ./system/CMSIS/stm32/system_stm32f4xx.o
 .debug_frame   0x000012c4      0x374 ./system/syscalls.o
 .debug_frame   0x00001638       0x30 ./src/main.o
 .debug_frame   0x00001668      0x1e4 ./src/stm32f4xx_it.o
 .debug_frame   0x0000184c       0xc4 ./config/usb_config/usb_bsp.o
 .debug_frame   0x00001910       0xe8 ./config/usb_config/usbd_desc.o
 .debug_frame   0x000019f8       0xbc ./config/usb_config/usbd_usr.o
 .debug_frame   0x00001ab4       0x48 ./Third_Party/fat_fs/src/option/ccsbcs.o
 .debug_frame   0x00001afc       0xb0 ./Third_Party/fat_fs/src/diskio.o
 .debug_frame   0x00001bac       0x28 ./Third_Party/fat_fs/src/fattime.o
 .debug_frame   0x00001bd4      0x634 ./Third_Party/fat_fs/src/ff.o
 .debug_frame   0x00002208      0x564 ./Third_Party/fat_fs/src/sdio_sd.o
 .debug_frame   0x0000276c      0x434 ./Third_Party/USB_Lib/otg/usb_core.o
 .debug_frame   0x00002ba0      0x1ac ./Third_Party/USB_Lib/otg/usb_dcd.o
 .debug_frame   0x00002d4c      0x1ac ./Third_Party/USB_Lib/otg/usb_dcd_int.o
 .debug_frame   0x00002ef8      0x1ac ./Third_Party/USB_Lib/core/usbd_core.o
 .debug_frame   0x000030a4       0xec ./Third_Party/USB_Lib/core/usbd_ioreq.o
 .debug_frame   0x00003190      0x1c8 ./Third_Party/USB_Lib/core/usbd_req.o
 .debug_frame   0x00003358      0x12c ./Third_Party/USB_Lib/cdc/usbd_cdc_core.o
 .debug_frame   0x00003484      0x144 ./Third_Party/USB_Lib/cdc/usbd_cdc_vcp.o
 .debug_frame   0x000035c8      0x188 ./Third_Party/FreeRTOS/portable/port.o
 .debug_frame   0x00003750       0x9c ./Third_Party/FreeRTOS/heap_2.o
 .debug_frame   0x000037ec       0x9c ./Third_Party/FreeRTOS/list.o
 .debug_frame   0x00003888      0x328 ./Third_Party/FreeRTOS/queue.o
 .debug_frame   0x00003bb0      0x4e4 ./Third_Party/FreeRTOS/tasks.o
 .debug_frame   0x00004094      0x1e0 ./Third_Party/FreeRTOS/timers.o
 .debug_frame   0x00004274       0xc4 ./Drivers/HW.o
 .debug_frame   0x00004338      0x240 ./Drivers/LCD_4002.o
 .debug_frame   0x00004578       0xfc ./Drivers/SerialRS232.o
 .debug_frame   0x00004674       0xc4 ./Drivers/stm32f4_discovery.o
 .debug_frame   0x00004738       0xf0 ./Applications/CMainHandler.o
 .debug_frame   0x00004828       0xf0 ./Applications/CSerialHandler.o
 .debug_frame   0x00004918      0x128 ./Applications/ClassMessage.o
 .debug_frame   0x00004a40       0xac ./Applications/LCDHandler.o
 .debug_frame   0x00004aec       0xe4 ./Applications/QueueBox.o
 .debug_frame   0x00004bd0       0x4c ./Applications/rawMessageHandler.o
 .debug_frame   0x00004c1c       0x20 /opt/codesourcery/arm-2012.09/bin/../lib/gcc/arm-none-eabi/4.7.2/../../../../arm-none-eabi/lib/thumb2/libstdc++.a(del_op.o)
 .debug_frame   0x00004c3c       0x20 /opt/codesourcery/arm-2012.09/bin/../lib/gcc/arm-none-eabi/4.7.2/../../../../arm-none-eabi/lib/thumb2/libc.a(lib_a-atexit.o)
 .debug_frame   0x00004c5c       0x30 /opt/codesourcery/arm-2012.09/bin/../lib/gcc/arm-none-eabi/4.7.2/../../../../arm-none-eabi/lib/thumb2/libc.a(lib_a-atoi.o)
 .debug_frame   0x00004c8c       0x20 /opt/codesourcery/arm-2012.09/bin/../lib/gcc/arm-none-eabi/4.7.2/../../../../arm-none-eabi/lib/thumb2/libc.a(lib_a-errno.o)
 .debug_frame   0x00004cac       0x30 /opt/codesourcery/arm-2012.09/bin/../lib/gcc/arm-none-eabi/4.7.2/../../../../arm-none-eabi/lib/thumb2/libc.a(lib_a-malloc.o)
 .debug_frame   0x00004cdc       0x38 /opt/codesourcery/arm-2012.09/bin/../lib/gcc/arm-none-eabi/4.7.2/../../../../arm-none-eabi/lib/thumb2/libc.a(lib_a-mallocr.o)
 .debug_frame   0x00004d14       0x2c /opt/codesourcery/arm-2012.09/bin/../lib/gcc/arm-none-eabi/4.7.2/../../../../arm-none-eabi/lib/thumb2/libc.a(lib_a-memcmp.o)
 .debug_frame   0x00004d40       0x34 /opt/codesourcery/arm-2012.09/bin/../lib/gcc/arm-none-eabi/4.7.2/../../../../arm-none-eabi/lib/thumb2/libc.a(lib_a-memcpy.o)
 .debug_frame   0x00004d74       0x2c /opt/codesourcery/arm-2012.09/bin/../lib/gcc/arm-none-eabi/4.7.2/../../../../arm-none-eabi/lib/thumb2/libc.a(lib_a-memset.o)
 .debug_frame   0x00004da0       0x30 /opt/codesourcery/arm-2012.09/bin/../lib/gcc/arm-none-eabi/4.7.2/../../../../arm-none-eabi/lib/thumb2/libc.a(lib_a-mlock.o)
 .debug_frame   0x00004dd0       0x50 /opt/codesourcery/arm-2012.09/bin/../lib/gcc/arm-none-eabi/4.7.2/../../../../arm-none-eabi/lib/thumb2/libc.a(lib_a-strtol.o)
 .debug_frame   0x00004e20       0x34 /opt/codesourcery/arm-2012.09/bin/../lib/gcc/arm-none-eabi/4.7.2/../../../../arm-none-eabi/lib/thumb2/libc.a(lib_a-__atexit.o)
 .debug_frame   0x00004e54       0x50 /opt/codesourcery/arm-2012.09/bin/../lib/gcc/arm-none-eabi/4.7.2/../../../../arm-none-eabi/lib/thumb2/libc.a(lib_a-freer.o)
 .debug_frame   0x00004ea4       0x20 /opt/codesourcery/arm-2012.09/bin/../lib/gcc/arm-none-eabi/4.7.2/thumb2/libgcc.a(_udivsi3.o)
